{"abi":[{"type":"constructor","inputs":[{"name":"_eas","type":"address","internalType":"contract IEAS"},{"name":"_astralSigner","type":"address","internalType":"address"}],"stateMutability":"nonpayable"},{"type":"function","name":"amount","inputs":[],"outputs":[{"name":"","type":"uint256","internalType":"uint256"}],"stateMutability":"view"},{"type":"function","name":"astralSigner","inputs":[],"outputs":[{"name":"","type":"address","internalType":"address"}],"stateMutability":"view"},{"type":"function","name":"attestationUIDUsed","inputs":[],"outputs":[{"name":"","type":"bytes32","internalType":"bytes32"}],"stateMutability":"view"},{"type":"function","name":"beneficiary","inputs":[],"outputs":[{"name":"","type":"address","internalType":"address"}],"stateMutability":"view"},{"type":"function","name":"confirmDelivery","inputs":[{"name":"attestationUID","type":"bytes32","internalType":"bytes32"}],"outputs":[],"stateMutability":"nonpayable"},{"type":"function","name":"eas","inputs":[],"outputs":[{"name":"","type":"address","internalType":"contract IEAS"}],"stateMutability":"view"},{"type":"function","name":"fund","inputs":[{"name":"_beneficiary","type":"address","internalType":"address"}],"outputs":[],"stateMutability":"payable"},{"type":"function","name":"funder","inputs":[],"outputs":[{"name":"","type":"address","internalType":"address"}],"stateMutability":"view"},{"type":"function","name":"released","inputs":[],"outputs":[{"name":"","type":"bool","internalType":"bool"}],"stateMutability":"view"},{"type":"event","name":"Funded","inputs":[{"name":"funder","type":"address","indexed":true,"internalType":"address"},{"name":"beneficiary","type":"address","indexed":true,"internalType":"address"},{"name":"amount","type":"uint256","indexed":false,"internalType":"uint256"}],"anonymous":false},{"type":"event","name":"Released","inputs":[{"name":"beneficiary","type":"address","indexed":true,"internalType":"address"},{"name":"amount","type":"uint256","indexed":false,"internalType":"uint256"},{"name":"attestationUID","type":"bytes32","indexed":false,"internalType":"bytes32"}],"anonymous":false},{"type":"error","name":"AlreadyReleased","inputs":[]},{"type":"error","name":"NotAstralAttester","inputs":[]},{"type":"error","name":"NotFunded","inputs":[]},{"type":"error","name":"PolicyFailed","inputs":[]},{"type":"error","name":"ZeroAddress","inputs":[]}],"bytecode":{"object":"0x60c060405234801561000f575f5ffd5b506040516113ae3803806113ae833981810160405281019061003191906101d5565b5f73ffffffffffffffffffffffffffffffffffffffff168273ffffffffffffffffffffffffffffffffffffffff16148061009657505f73ffffffffffffffffffffffffffffffffffffffff168173ffffffffffffffffffffffffffffffffffffffff16145b156100cd576040517fd92e233d00000000000000000000000000000000000000000000000000000000815260040160405180910390fd5b8173ffffffffffffffffffffffffffffffffffffffff1660808173ffffffffffffffffffffffffffffffffffffffff16815250508073ffffffffffffffffffffffffffffffffffffffff1660a08173ffffffffffffffffffffffffffffffffffffffff16815250505050610213565b5f5ffd5b5f73ffffffffffffffffffffffffffffffffffffffff82169050919050565b5f61016982610140565b9050919050565b5f61017a8261015f565b9050919050565b61018a81610170565b8114610194575f5ffd5b50565b5f815190506101a581610181565b92915050565b6101b48161015f565b81146101be575f5ffd5b50565b5f815190506101cf816101ab565b92915050565b5f5f604083850312156101eb576101ea61013c565b5b5f6101f885828601610197565b9250506020610209858286016101c1565b9150509250929050565b60805160a05161116c6102425f395f81816105ba01526108a901525f818161051d0152610885015261116c5ff3fe608060405260043610610085575f3560e01c80638150864d116100585780638150864d14610121578063914daedb1461014b5780639613252114610175578063aa8c217c1461019f578063b06b3900146101c957610085565b8063041ae8801461008957806323024408146100b357806338af3eed146100cf57806374950ffd146100f9575b5f5ffd5b348015610094575f5ffd5b5061009d6101f3565b6040516100aa9190610928565b60405180910390f35b6100cd60048036038101906100c8919061097c565b610218565b005b3480156100da575f5ffd5b506100e361042b565b6040516100f09190610928565b60405180910390f35b348015610104575f5ffd5b5061011f600480360381019061011a91906109da565b61044f565b005b34801561012c575f5ffd5b50610135610883565b6040516101429190610a60565b60405180910390f35b348015610156575f5ffd5b5061015f6108a7565b60405161016c9190610928565b60405180910390f35b348015610180575f5ffd5b506101896108cb565b6040516101969190610a93565b60405180910390f35b3480156101aa575f5ffd5b506101b36108dd565b6040516101c09190610ac4565b60405180910390f35b3480156101d4575f5ffd5b506101dd6108e3565b6040516101ea9190610aec565b60405180910390f35b60015f9054906101000a900473ffffffffffffffffffffffffffffffffffffffff1681565b5f73ffffffffffffffffffffffffffffffffffffffff168173ffffffffffffffffffffffffffffffffffffffff160361027d576040517fd92e233d00000000000000000000000000000000000000000000000000000000815260040160405180910390fd5b5f34036102b6576040517fd5ef09ba00000000000000000000000000000000000000000000000000000000815260040160405180910390fd5b5f73ffffffffffffffffffffffffffffffffffffffff165f5f9054906101000a900473ffffffffffffffffffffffffffffffffffffffff1673ffffffffffffffffffffffffffffffffffffffff161461033b576040517f63b4904e00000000000000000000000000000000000000000000000000000000815260040160405180910390fd5b805f5f6101000a81548173ffffffffffffffffffffffffffffffffffffffff021916908373ffffffffffffffffffffffffffffffffffffffff1602179055503360015f6101000a81548173ffffffffffffffffffffffffffffffffffffffff021916908373ffffffffffffffffffffffffffffffffffffffff160217905550346002819055508073ffffffffffffffffffffffffffffffffffffffff163373ffffffffffffffffffffffffffffffffffffffff167f3b5083eec1a1116c56de5d6841cff8efc6a0aec9850e836ec509d6ce024ea5616002546040516104209190610ac4565b60405180910390a350565b5f5f9054906101000a900473ffffffffffffffffffffffffffffffffffffffff1681565b60035f9054906101000a900460ff1615610495576040517f63b4904e00000000000000000000000000000000000000000000000000000000815260040160405180910390fd5b5f73ffffffffffffffffffffffffffffffffffffffff165f5f9054906101000a900473ffffffffffffffffffffffffffffffffffffffff1673ffffffffffffffffffffffffffffffffffffffff160361051a576040517fd5ef09ba00000000000000000000000000000000000000000000000000000000815260040160405180910390fd5b5f7f000000000000000000000000000000000000000000000000000000000000000073ffffffffffffffffffffffffffffffffffffffff1663a3112a64836040518263ffffffff1660e01b81526004016105749190610aec565b5f60405180830381865afa15801561058e573d5f5f3e3d5ffd5b505050506040513d5f823e3d601f19601f820116820180604052508101906105b69190610de7565b90507f000000000000000000000000000000000000000000000000000000000000000073ffffffffffffffffffffffffffffffffffffffff168160e0015173ffffffffffffffffffffffffffffffffffffffff1614610641576040517f7a17ace600000000000000000000000000000000000000000000000000000000815260040160405180910390fd5b5f5f9054906101000a900473ffffffffffffffffffffffffffffffffffffffff1673ffffffffffffffffffffffffffffffffffffffff168160c0015173ffffffffffffffffffffffffffffffffffffffff16146106ca576040517fd03fb92e00000000000000000000000000000000000000000000000000000000815260040160405180910390fd5b5f8161012001518060200190518101906106e49190610fba565b505050905080610720576040517fd03fb92e00000000000000000000000000000000000000000000000000000000815260040160405180910390fd5b600160035f6101000a81548160ff021916908315150217905550826004819055505f5f5f9054906101000a900473ffffffffffffffffffffffffffffffffffffffff1673ffffffffffffffffffffffffffffffffffffffff1660025460405161078890611083565b5f6040518083038185875af1925050503d805f81146107c2576040519150601f19603f3d011682016040523d82523d5f602084013e6107c7565b606091505b505090508061080b576040517f08c379a0000000000000000000000000000000000000000000000000000000008152600401610802906110f1565b60405180910390fd5b5f5f9054906101000a900473ffffffffffffffffffffffffffffffffffffffff1673ffffffffffffffffffffffffffffffffffffffff167ffe4ecfae64ce6e6dce8107654eb7addc328974688a72c24516a7352c21040e4b6002548660405161087592919061110f565b60405180910390a250505050565b7f000000000000000000000000000000000000000000000000000000000000000081565b7f000000000000000000000000000000000000000000000000000000000000000081565b60035f9054906101000a900460ff1681565b60025481565b60045481565b5f73ffffffffffffffffffffffffffffffffffffffff82169050919050565b5f610912826108e9565b9050919050565b61092281610908565b82525050565b5f60208201905061093b5f830184610919565b92915050565b5f604051905090565b5f5ffd5b5f5ffd5b61095b81610908565b8114610965575f5ffd5b50565b5f8135905061097681610952565b92915050565b5f602082840312156109915761099061094a565b5b5f61099e84828501610968565b91505092915050565b5f819050919050565b6109b9816109a7565b81146109c3575f5ffd5b50565b5f813590506109d4816109b0565b92915050565b5f602082840312156109ef576109ee61094a565b5b5f6109fc848285016109c6565b91505092915050565b5f819050919050565b5f610a28610a23610a1e846108e9565b610a05565b6108e9565b9050919050565b5f610a3982610a0e565b9050919050565b5f610a4a82610a2f565b9050919050565b610a5a81610a40565b82525050565b5f602082019050610a735f830184610a51565b92915050565b5f8115159050919050565b610a8d81610a79565b82525050565b5f602082019050610aa65f830184610a84565b92915050565b5f819050919050565b610abe81610aac565b82525050565b5f602082019050610ad75f830184610ab5565b92915050565b610ae6816109a7565b82525050565b5f602082019050610aff5f830184610add565b92915050565b5f5ffd5b5f601f19601f8301169050919050565b7f4e487b71000000000000000000000000000000000000000000000000000000005f52604160045260245ffd5b610b4f82610b09565b810181811067ffffffffffffffff82111715610b6e57610b6d610b19565b5b80604052505050565b5f610b80610941565b9050610b8c8282610b46565b919050565b5f5ffd5b5f81519050610ba3816109b0565b92915050565b5f67ffffffffffffffff82169050919050565b610bc581610ba9565b8114610bcf575f5ffd5b50565b5f81519050610be081610bbc565b92915050565b5f81519050610bf481610952565b92915050565b610c0381610a79565b8114610c0d575f5ffd5b50565b5f81519050610c1e81610bfa565b92915050565b5f5ffd5b5f5ffd5b5f67ffffffffffffffff821115610c4657610c45610b19565b5b610c4f82610b09565b9050602081019050919050565b8281835e5f83830152505050565b5f610c7c610c7784610c2c565b610b77565b905082815260208101848484011115610c9857610c97610c28565b5b610ca3848285610c5c565b509392505050565b5f82601f830112610cbf57610cbe610c24565b5b8151610ccf848260208601610c6a565b91505092915050565b5f6101408284031215610cee57610ced610b05565b5b610cf9610140610b77565b90505f610d0884828501610b95565b5f830152506020610d1b84828501610b95565b6020830152506040610d2f84828501610bd2565b6040830152506060610d4384828501610bd2565b6060830152506080610d5784828501610bd2565b60808301525060a0610d6b84828501610b95565b60a08301525060c0610d7f84828501610be6565b60c08301525060e0610d9384828501610be6565b60e083015250610100610da884828501610c10565b6101008301525061012082015167ffffffffffffffff811115610dce57610dcd610b91565b5b610dda84828501610cab565b6101208301525092915050565b5f60208284031215610dfc57610dfb61094a565b5b5f82015167ffffffffffffffff811115610e1957610e1861094e565b5b610e2584828501610cd8565b91505092915050565b5f67ffffffffffffffff821115610e4857610e47610b19565b5b602082029050602081019050919050565b5f5ffd5b5f610e6f610e6a84610e2e565b610b77565b90508083825260208201905060208402830185811115610e9257610e91610e59565b5b835b81811015610ebb5780610ea78882610b95565b845260208401935050602081019050610e94565b5050509392505050565b5f82601f830112610ed957610ed8610c24565b5b8151610ee9848260208601610e5d565b91505092915050565b610efb81610aac565b8114610f05575f5ffd5b50565b5f81519050610f1681610ef2565b92915050565b5f67ffffffffffffffff821115610f3657610f35610b19565b5b610f3f82610b09565b9050602081019050919050565b5f610f5e610f5984610f1c565b610b77565b905082815260208101848484011115610f7a57610f79610c28565b5b610f85848285610c5c565b509392505050565b5f82601f830112610fa157610fa0610c24565b5b8151610fb1848260208601610f4c565b91505092915050565b5f5f5f5f60808587031215610fd257610fd161094a565b5b5f610fdf87828801610c10565b945050602085015167ffffffffffffffff81111561100057610fff61094e565b5b61100c87828801610ec5565b935050604061101d87828801610f08565b925050606085015167ffffffffffffffff81111561103e5761103d61094e565b5b61104a87828801610f8d565b91505092959194509250565b5f81905092915050565b50565b5f61106e5f83611056565b915061107982611060565b5f82019050919050565b5f61108d82611063565b9150819050919050565b5f82825260208201905092915050565b7f5472616e73666572206661696c656400000000000000000000000000000000005f82015250565b5f6110db600f83611097565b91506110e6826110a7565b602082019050919050565b5f6020820190508181035f830152611108816110cf565b9050919050565b5f6040820190506111225f830185610ab5565b61112f6020830184610add565b939250505056fea264697066735822122055aa6cb3632178694bcdfa1a9617447306fd36e100d1520f7547601b206fc13264736f6c634300081c0033","linkReferences":{}},"methodIdentifiers":{"amount()":"aa8c217c","astralSigner()":"914daedb","attestationUIDUsed()":"b06b3900","beneficiary()":"38af3eed","confirmDelivery(bytes32)":"74950ffd","eas()":"8150864d","fund(address)":"23024408","funder()":"041ae880","released()":"96132521"},"id":49}