{"abi":[{"type":"constructor","inputs":[{"name":"eas","type":"address","internalType":"contract IEAS"},{"name":"_astralSigner","type":"address","internalType":"address"}],"stateMutability":"nonpayable"},{"type":"receive","stateMutability":"payable"},{"type":"function","name":"astralSigner","inputs":[],"outputs":[{"name":"","type":"address","internalType":"address"}],"stateMutability":"view"},{"type":"function","name":"attest","inputs":[{"name":"attestation","type":"tuple","internalType":"struct Attestation","components":[{"name":"uid","type":"bytes32","internalType":"bytes32"},{"name":"schema","type":"bytes32","internalType":"bytes32"},{"name":"time","type":"uint64","internalType":"uint64"},{"name":"expirationTime","type":"uint64","internalType":"uint64"},{"name":"revocationTime","type":"uint64","internalType":"uint64"},{"name":"refUID","type":"bytes32","internalType":"bytes32"},{"name":"recipient","type":"address","internalType":"address"},{"name":"attester","type":"address","internalType":"address"},{"name":"revocable","type":"bool","internalType":"bool"},{"name":"data","type":"bytes","internalType":"bytes"}]}],"outputs":[{"name":"","type":"bool","internalType":"bool"}],"stateMutability":"payable"},{"type":"function","name":"isPayable","inputs":[],"outputs":[{"name":"","type":"bool","internalType":"bool"}],"stateMutability":"pure"},{"type":"function","name":"multiAttest","inputs":[{"name":"attestations","type":"tuple[]","internalType":"struct Attestation[]","components":[{"name":"uid","type":"bytes32","internalType":"bytes32"},{"name":"schema","type":"bytes32","internalType":"bytes32"},{"name":"time","type":"uint64","internalType":"uint64"},{"name":"expirationTime","type":"uint64","internalType":"uint64"},{"name":"revocationTime","type":"uint64","internalType":"uint64"},{"name":"refUID","type":"bytes32","internalType":"bytes32"},{"name":"recipient","type":"address","internalType":"address"},{"name":"attester","type":"address","internalType":"address"},{"name":"revocable","type":"bool","internalType":"bool"},{"name":"data","type":"bytes","internalType":"bytes"}]},{"name":"values","type":"uint256[]","internalType":"uint256[]"}],"outputs":[{"name":"","type":"bool","internalType":"bool"}],"stateMutability":"payable"},{"type":"function","name":"multiRevoke","inputs":[{"name":"attestations","type":"tuple[]","internalType":"struct Attestation[]","components":[{"name":"uid","type":"bytes32","internalType":"bytes32"},{"name":"schema","type":"bytes32","internalType":"bytes32"},{"name":"time","type":"uint64","internalType":"uint64"},{"name":"expirationTime","type":"uint64","internalType":"uint64"},{"name":"revocationTime","type":"uint64","internalType":"uint64"},{"name":"refUID","type":"bytes32","internalType":"bytes32"},{"name":"recipient","type":"address","internalType":"address"},{"name":"attester","type":"address","internalType":"address"},{"name":"revocable","type":"bool","internalType":"bool"},{"name":"data","type":"bytes","internalType":"bytes"}]},{"name":"values","type":"uint256[]","internalType":"uint256[]"}],"outputs":[{"name":"","type":"bool","internalType":"bool"}],"stateMutability":"payable"},{"type":"function","name":"revoke","inputs":[{"name":"attestation","type":"tuple","internalType":"struct Attestation","components":[{"name":"uid","type":"bytes32","internalType":"bytes32"},{"name":"schema","type":"bytes32","internalType":"bytes32"},{"name":"time","type":"uint64","internalType":"uint64"},{"name":"expirationTime","type":"uint64","internalType":"uint64"},{"name":"revocationTime","type":"uint64","internalType":"uint64"},{"name":"refUID","type":"bytes32","internalType":"bytes32"},{"name":"recipient","type":"address","internalType":"address"},{"name":"attester","type":"address","internalType":"address"},{"name":"revocable","type":"bool","internalType":"bool"},{"name":"data","type":"bytes","internalType":"bytes"}]}],"outputs":[{"name":"","type":"bool","internalType":"bool"}],"stateMutability":"payable"},{"type":"function","name":"version","inputs":[],"outputs":[{"name":"","type":"string","internalType":"string"}],"stateMutability":"view"},{"type":"event","name":"PolicyChecked","inputs":[{"name":"recipient","type":"address","indexed":true,"internalType":"address"},{"name":"result","type":"bool","indexed":false,"internalType":"bool"},{"name":"operation","type":"string","indexed":false,"internalType":"string"}],"anonymous":false},{"type":"error","name":"AccessDenied","inputs":[]},{"type":"error","name":"InsufficientValue","inputs":[]},{"type":"error","name":"InvalidEAS","inputs":[]},{"type":"error","name":"InvalidLength","inputs":[]},{"type":"error","name":"NotAstralAttester","inputs":[]},{"type":"error","name":"NotPayable","inputs":[]},{"type":"error","name":"ZeroAddress","inputs":[]}],"bytecode":{"object":"0x610100604052348015610010575f5ffd5b506040516113ee3803806113ee83398181016040528101906100329190610231565b81600160045f82608081815250508160a081815250508060c081815250505050505f73ffffffffffffffffffffffffffffffffffffffff168173ffffffffffffffffffffffffffffffffffffffff16036100b8576040517f83780ffe00000000000000000000000000000000000000000000000000000000815260040160405180910390fd5b8073ffffffffffffffffffffffffffffffffffffffff1660e08173ffffffffffffffffffffffffffffffffffffffff1681525050505f73ffffffffffffffffffffffffffffffffffffffff168173ffffffffffffffffffffffffffffffffffffffff1603610152576040517fd92e233d00000000000000000000000000000000000000000000000000000000815260040160405180910390fd5b805f5f6101000a81548173ffffffffffffffffffffffffffffffffffffffff021916908373ffffffffffffffffffffffffffffffffffffffff160217905550505061026f565b5f5ffd5b5f73ffffffffffffffffffffffffffffffffffffffff82169050919050565b5f6101c58261019c565b9050919050565b5f6101d6826101bb565b9050919050565b6101e6816101cc565b81146101f0575f5ffd5b50565b5f81519050610201816101dd565b92915050565b610210816101bb565b811461021a575f5ffd5b50565b5f8151905061022b81610207565b92915050565b5f5f6040838503121561024757610246610198565b5b5f610254858286016101f3565b92505060206102658582860161021d565b9150509250929050565b60805160a05160c05160e05161114c6102a25f395f6105ee01525f61025a01525f61023101525f610208015261114c5ff3fe608060405260043610610073575f3560e01c806391db0b7e1161004d57806391db0b7e14610140578063ce46e04614610170578063e49617e11461019a578063e60c3505146101ca576100b8565b806354fd4d50146100bc57806388e5b2d9146100e6578063914daedb14610116576100b8565b366100b8576100806101fa565b6100b6576040517f1574f9f300000000000000000000000000000000000000000000000000000000815260040160405180910390fd5b005b5f5ffd5b3480156100c7575f5ffd5b506100d0610201565b6040516100dd919061096b565b60405180910390f35b61010060048036038101906100fb9190610a52565b6102a4565b60405161010d9190610aea565b60405180910390f35b348015610121575f5ffd5b5061012a6103b7565b6040516101379190610b42565b60405180910390f35b61015a60048036038101906101559190610a52565b6103db565b6040516101679190610aea565b60405180910390f35b34801561017b575f5ffd5b506101846101fa565b6040516101919190610aea565b60405180910390f35b6101b460048036038101906101af9190610b7e565b6104ee565b6040516101c19190610aea565b60405180910390f35b6101e460048036038101906101df9190610b7e565b610508565b6040516101f19190610aea565b60405180910390f35b5f5f905090565b606061022c7f0000000000000000000000000000000000000000000000000000000000000000610522565b6102557f0000000000000000000000000000000000000000000000000000000000000000610522565b61027e7f0000000000000000000000000000000000000000000000000000000000000000610522565b60405160200161029093929190610c49565b604051602081830303815290604052905090565b5f6102ad6105ec565b5f8585905090508383905081146102f0576040517f947d5a8400000000000000000000000000000000000000000000000000000000815260040160405180910390fd5b5f3490505f5f90505b828110156103a7575f86868381811061031557610314610c8f565b5b90506020020135905082811115610358576040517f1101129400000000000000000000000000000000000000000000000000000000815260040160405180910390fd5b61038689898481811061036e5761036d610c8f565b5b90506020028101906103809190610cc8565b82610673565b610396575f9450505050506103af565b8083039250508060010190506102f9565b506001925050505b949350505050565b5f5f9054906101000a900473ffffffffffffffffffffffffffffffffffffffff1681565b5f6103e46105ec565b5f858590509050838390508114610427576040517f947d5a8400000000000000000000000000000000000000000000000000000000815260040160405180910390fd5b5f3490505f5f90505b828110156104de575f86868381811061044c5761044b610c8f565b5b9050602002013590508281111561048f576040517f1101129400000000000000000000000000000000000000000000000000000000815260040160405180910390fd5b6104bd8989848181106104a5576104a4610c8f565b5b90506020028101906104b79190610cc8565b8261067e565b6104cd575f9450505050506104e6565b808303925050806001019050610430565b506001925050505b949350505050565b5f6104f76105ec565b6105018234610673565b9050919050565b5f6105116105ec565b61051b823461067e565b9050919050565b60605f6001610530846107aa565b0190505f8167ffffffffffffffff81111561054e5761054d610cf0565b5b6040519080825280601f01601f1916602001820160405280156105805781602001600182028036833780820191505090505b5090505f82602083010190505b6001156105e1578080600190039150507f3031323334353637383961626364656600000000000000000000000000000000600a86061a8153600a85816105d6576105d5610d1d565b5b0494505f850361058d575b819350505050919050565b7f000000000000000000000000000000000000000000000000000000000000000073ffffffffffffffffffffffffffffffffffffffff163373ffffffffffffffffffffffffffffffffffffffff1614610671576040517f4ca8886700000000000000000000000000000000000000000000000000000000815260040160405180910390fd5b565b5f6001905092915050565b5f5f5f9054906101000a900473ffffffffffffffffffffffffffffffffffffffff1673ffffffffffffffffffffffffffffffffffffffff168360e00160208101906106c99190610d74565b73ffffffffffffffffffffffffffffffffffffffff1614610716576040517f7a17ace600000000000000000000000000000000000000000000000000000000815260040160405180910390fd5b5f5f848061012001906107299190610d9f565b810190610736919061104c565b9350505091508460c001602081019061074f9190610d74565b73ffffffffffffffffffffffffffffffffffffffff167f37b5fbe4c93130deaf16f17d265b941ca60580c72c7e8596f031892964240eaf83836040516107969291906110e8565b60405180910390a260019250505092915050565b5f5f5f90507a184f03e93ff9f4daa797ed6e38ed64bf6a1f0100000000000000008310610806577a184f03e93ff9f4daa797ed6e38ed64bf6a1f01000000000000000083816107fc576107fb610d1d565b5b0492506040810190505b6d04ee2d6d415b85acef81000000008310610843576d04ee2d6d415b85acef8100000000838161083957610838610d1d565b5b0492506020810190505b662386f26fc10000831061087257662386f26fc10000838161086857610867610d1d565b5b0492506010810190505b6305f5e100831061089b576305f5e100838161089157610890610d1d565b5b0492506008810190505b61271083106108c05761271083816108b6576108b5610d1d565b5b0492506004810190505b606483106108e357606483816108d9576108d8610d1d565b5b0492506002810190505b600a83106108f2576001810190505b80915050919050565b5f81519050919050565b5f82825260208201905092915050565b8281835e5f83830152505050565b5f601f19601f8301169050919050565b5f61093d826108fb565b6109478185610905565b9350610957818560208601610915565b61096081610923565b840191505092915050565b5f6020820190508181035f8301526109838184610933565b905092915050565b5f604051905090565b5f5ffd5b5f5ffd5b5f5ffd5b5f5ffd5b5f5ffd5b5f5f83601f8401126109bd576109bc61099c565b5b8235905067ffffffffffffffff8111156109da576109d96109a0565b5b6020830191508360208202830111156109f6576109f56109a4565b5b9250929050565b5f5f83601f840112610a1257610a1161099c565b5b8235905067ffffffffffffffff811115610a2f57610a2e6109a0565b5b602083019150836020820283011115610a4b57610a4a6109a4565b5b9250929050565b5f5f5f5f60408587031215610a6a57610a69610994565b5b5f85013567ffffffffffffffff811115610a8757610a86610998565b5b610a93878288016109a8565b9450945050602085013567ffffffffffffffff811115610ab657610ab5610998565b5b610ac2878288016109fd565b925092505092959194509250565b5f8115159050919050565b610ae481610ad0565b82525050565b5f602082019050610afd5f830184610adb565b92915050565b5f73ffffffffffffffffffffffffffffffffffffffff82169050919050565b5f610b2c82610b03565b9050919050565b610b3c81610b22565b82525050565b5f602082019050610b555f830184610b33565b92915050565b5f5ffd5b5f6101408284031215610b7557610b74610b5b565b5b81905092915050565b5f60208284031215610b9357610b92610994565b5b5f82013567ffffffffffffffff811115610bb057610baf610998565b5b610bbc84828501610b5f565b91505092915050565b5f81905092915050565b5f610bd9826108fb565b610be38185610bc5565b9350610bf3818560208601610915565b80840191505092915050565b7f2e000000000000000000000000000000000000000000000000000000000000005f82015250565b5f610c33600183610bc5565b9150610c3e82610bff565b600182019050919050565b5f610c548286610bcf565b9150610c5f82610c27565b9150610c6b8285610bcf565b9150610c7682610c27565b9150610c828284610bcf565b9150819050949350505050565b7f4e487b71000000000000000000000000000000000000000000000000000000005f52603260045260245ffd5b5f5ffd5b5f5ffd5b5f5ffd5b5f8235600161014003833603038112610ce457610ce3610cbc565b5b80830191505092915050565b7f4e487b71000000000000000000000000000000000000000000000000000000005f52604160045260245ffd5b7f4e487b71000000000000000000000000000000000000000000000000000000005f52601260045260245ffd5b610d5381610b22565b8114610d5d575f5ffd5b50565b5f81359050610d6e81610d4a565b92915050565b5f60208284031215610d8957610d88610994565b5b5f610d9684828501610d60565b91505092915050565b5f5f83356001602003843603038112610dbb57610dba610cbc565b5b80840192508235915067ffffffffffffffff821115610ddd57610ddc610cc0565b5b602083019250600182023603831315610df957610df8610cc4565b5b509250929050565b610e0a81610ad0565b8114610e14575f5ffd5b50565b5f81359050610e2581610e01565b92915050565b610e3482610923565b810181811067ffffffffffffffff82111715610e5357610e52610cf0565b5b80604052505050565b5f610e6561098b565b9050610e718282610e2b565b919050565b5f67ffffffffffffffff821115610e9057610e8f610cf0565b5b602082029050602081019050919050565b5f819050919050565b610eb381610ea1565b8114610ebd575f5ffd5b50565b5f81359050610ece81610eaa565b92915050565b5f610ee6610ee184610e76565b610e5c565b90508083825260208201905060208402830185811115610f0957610f086109a4565b5b835b81811015610f325780610f1e8882610ec0565b845260208401935050602081019050610f0b565b5050509392505050565b5f82601f830112610f5057610f4f61099c565b5b8135610f60848260208601610ed4565b91505092915050565b5f819050919050565b610f7b81610f69565b8114610f85575f5ffd5b50565b5f81359050610f9681610f72565b92915050565b5f5ffd5b5f67ffffffffffffffff821115610fba57610fb9610cf0565b5b610fc382610923565b9050602081019050919050565b828183375f83830152505050565b5f610ff0610feb84610fa0565b610e5c565b90508281526020810184848401111561100c5761100b610f9c565b5b611017848285610fd0565b509392505050565b5f82601f8301126110335761103261099c565b5b8135611043848260208601610fde565b91505092915050565b5f5f5f5f6080858703121561106457611063610994565b5b5f61107187828801610e17565b945050602085013567ffffffffffffffff81111561109257611091610998565b5b61109e87828801610f3c565b93505060406110af87828801610f88565b925050606085013567ffffffffffffffff8111156110d0576110cf610998565b5b6110dc8782880161101f565b91505092959194509250565b5f6040820190506110fb5f830185610adb565b818103602083015261110d8184610933565b9050939250505056fea2646970667358221220a8f9e288b0fbccf4baaff1c8b27ac257f72116cab031a65aeda8c3bd81e7ebef64736f6c634300081c0033","linkReferences":{}},"methodIdentifiers":{"astralSigner()":"914daedb","attest((bytes32,bytes32,uint64,uint64,uint64,bytes32,address,address,bool,bytes))":"e60c3505","isPayable()":"ce46e046","multiAttest((bytes32,bytes32,uint64,uint64,uint64,bytes32,address,address,bool,bytes)[],uint256[])":"91db0b7e","multiRevoke((bytes32,bytes32,uint64,uint64,uint64,bytes32,address,address,bool,bytes)[],uint256[])":"88e5b2d9","revoke((bytes32,bytes32,uint64,uint64,uint64,bytes32,address,address,bool,bytes))":"e49617e1","version()":"54fd4d50"},"id":48}