{"abi":[{"type":"constructor","inputs":[{"name":"registry","type":"address","internalType":"contract ISchemaRegistry"}],"stateMutability":"nonpayable"},{"type":"function","name":"attest","inputs":[{"name":"request","type":"tuple","internalType":"struct AttestationRequest","components":[{"name":"schema","type":"bytes32","internalType":"bytes32"},{"name":"data","type":"tuple","internalType":"struct AttestationRequestData","components":[{"name":"recipient","type":"address","internalType":"address"},{"name":"expirationTime","type":"uint64","internalType":"uint64"},{"name":"revocable","type":"bool","internalType":"bool"},{"name":"refUID","type":"bytes32","internalType":"bytes32"},{"name":"data","type":"bytes","internalType":"bytes"},{"name":"value","type":"uint256","internalType":"uint256"}]}]}],"outputs":[{"name":"","type":"bytes32","internalType":"bytes32"}],"stateMutability":"payable"},{"type":"function","name":"attestByDelegation","inputs":[{"name":"delegatedRequest","type":"tuple","internalType":"struct DelegatedAttestationRequest","components":[{"name":"schema","type":"bytes32","internalType":"bytes32"},{"name":"data","type":"tuple","internalType":"struct AttestationRequestData","components":[{"name":"recipient","type":"address","internalType":"address"},{"name":"expirationTime","type":"uint64","internalType":"uint64"},{"name":"revocable","type":"bool","internalType":"bool"},{"name":"refUID","type":"bytes32","internalType":"bytes32"},{"name":"data","type":"bytes","internalType":"bytes"},{"name":"value","type":"uint256","internalType":"uint256"}]},{"name":"signature","type":"tuple","internalType":"struct Signature","components":[{"name":"v","type":"uint8","internalType":"uint8"},{"name":"r","type":"bytes32","internalType":"bytes32"},{"name":"s","type":"bytes32","internalType":"bytes32"}]},{"name":"attester","type":"address","internalType":"address"},{"name":"deadline","type":"uint64","internalType":"uint64"}]}],"outputs":[{"name":"","type":"bytes32","internalType":"bytes32"}],"stateMutability":"payable"},{"type":"function","name":"eip712Domain","inputs":[],"outputs":[{"name":"fields","type":"bytes1","internalType":"bytes1"},{"name":"name","type":"string","internalType":"string"},{"name":"version","type":"string","internalType":"string"},{"name":"chainId","type":"uint256","internalType":"uint256"},{"name":"verifyingContract","type":"address","internalType":"address"},{"name":"salt","type":"bytes32","internalType":"bytes32"},{"name":"extensions","type":"uint256[]","internalType":"uint256[]"}],"stateMutability":"view"},{"type":"function","name":"getAttestTypeHash","inputs":[],"outputs":[{"name":"","type":"bytes32","internalType":"bytes32"}],"stateMutability":"pure"},{"type":"function","name":"getAttestation","inputs":[{"name":"uid","type":"bytes32","internalType":"bytes32"}],"outputs":[{"name":"","type":"tuple","internalType":"struct Attestation","components":[{"name":"uid","type":"bytes32","internalType":"bytes32"},{"name":"schema","type":"bytes32","internalType":"bytes32"},{"name":"time","type":"uint64","internalType":"uint64"},{"name":"expirationTime","type":"uint64","internalType":"uint64"},{"name":"revocationTime","type":"uint64","internalType":"uint64"},{"name":"refUID","type":"bytes32","internalType":"bytes32"},{"name":"recipient","type":"address","internalType":"address"},{"name":"attester","type":"address","internalType":"address"},{"name":"revocable","type":"bool","internalType":"bool"},{"name":"data","type":"bytes","internalType":"bytes"}]}],"stateMutability":"view"},{"type":"function","name":"getDomainSeparator","inputs":[],"outputs":[{"name":"","type":"bytes32","internalType":"bytes32"}],"stateMutability":"view"},{"type":"function","name":"getName","inputs":[],"outputs":[{"name":"","type":"string","internalType":"string"}],"stateMutability":"view"},{"type":"function","name":"getNonce","inputs":[{"name":"account","type":"address","internalType":"address"}],"outputs":[{"name":"","type":"uint256","internalType":"uint256"}],"stateMutability":"view"},{"type":"function","name":"getRevokeOffchain","inputs":[{"name":"revoker","type":"address","internalType":"address"},{"name":"data","type":"bytes32","internalType":"bytes32"}],"outputs":[{"name":"","type":"uint64","internalType":"uint64"}],"stateMutability":"view"},{"type":"function","name":"getRevokeTypeHash","inputs":[],"outputs":[{"name":"","type":"bytes32","internalType":"bytes32"}],"stateMutability":"pure"},{"type":"function","name":"getSchemaRegistry","inputs":[],"outputs":[{"name":"","type":"address","internalType":"contract ISchemaRegistry"}],"stateMutability":"view"},{"type":"function","name":"getTimestamp","inputs":[{"name":"data","type":"bytes32","internalType":"bytes32"}],"outputs":[{"name":"","type":"uint64","internalType":"uint64"}],"stateMutability":"view"},{"type":"function","name":"increaseNonce","inputs":[{"name":"newNonce","type":"uint256","internalType":"uint256"}],"outputs":[],"stateMutability":"nonpayable"},{"type":"function","name":"isAttestationValid","inputs":[{"name":"uid","type":"bytes32","internalType":"bytes32"}],"outputs":[{"name":"","type":"bool","internalType":"bool"}],"stateMutability":"view"},{"type":"function","name":"multiAttest","inputs":[{"name":"multiRequests","type":"tuple[]","internalType":"struct MultiAttestationRequest[]","components":[{"name":"schema","type":"bytes32","internalType":"bytes32"},{"name":"data","type":"tuple[]","internalType":"struct AttestationRequestData[]","components":[{"name":"recipient","type":"address","internalType":"address"},{"name":"expirationTime","type":"uint64","internalType":"uint64"},{"name":"revocable","type":"bool","internalType":"bool"},{"name":"refUID","type":"bytes32","internalType":"bytes32"},{"name":"data","type":"bytes","internalType":"bytes"},{"name":"value","type":"uint256","internalType":"uint256"}]}]}],"outputs":[{"name":"","type":"bytes32[]","internalType":"bytes32[]"}],"stateMutability":"payable"},{"type":"function","name":"multiAttestByDelegation","inputs":[{"name":"multiDelegatedRequests","type":"tuple[]","internalType":"struct MultiDelegatedAttestationRequest[]","components":[{"name":"schema","type":"bytes32","internalType":"bytes32"},{"name":"data","type":"tuple[]","internalType":"struct AttestationRequestData[]","components":[{"name":"recipient","type":"address","internalType":"address"},{"name":"expirationTime","type":"uint64","internalType":"uint64"},{"name":"revocable","type":"bool","internalType":"bool"},{"name":"refUID","type":"bytes32","internalType":"bytes32"},{"name":"data","type":"bytes","internalType":"bytes"},{"name":"value","type":"uint256","internalType":"uint256"}]},{"name":"signatures","type":"tuple[]","internalType":"struct Signature[]","components":[{"name":"v","type":"uint8","internalType":"uint8"},{"name":"r","type":"bytes32","internalType":"bytes32"},{"name":"s","type":"bytes32","internalType":"bytes32"}]},{"name":"attester","type":"address","internalType":"address"},{"name":"deadline","type":"uint64","internalType":"uint64"}]}],"outputs":[{"name":"","type":"bytes32[]","internalType":"bytes32[]"}],"stateMutability":"payable"},{"type":"function","name":"multiRevoke","inputs":[{"name":"multiRequests","type":"tuple[]","internalType":"struct MultiRevocationRequest[]","components":[{"name":"schema","type":"bytes32","internalType":"bytes32"},{"name":"data","type":"tuple[]","internalType":"struct RevocationRequestData[]","components":[{"name":"uid","type":"bytes32","internalType":"bytes32"},{"name":"value","type":"uint256","internalType":"uint256"}]}]}],"outputs":[],"stateMutability":"payable"},{"type":"function","name":"multiRevokeByDelegation","inputs":[{"name":"multiDelegatedRequests","type":"tuple[]","internalType":"struct MultiDelegatedRevocationRequest[]","components":[{"name":"schema","type":"bytes32","internalType":"bytes32"},{"name":"data","type":"tuple[]","internalType":"struct RevocationRequestData[]","components":[{"name":"uid","type":"bytes32","internalType":"bytes32"},{"name":"value","type":"uint256","internalType":"uint256"}]},{"name":"signatures","type":"tuple[]","internalType":"struct Signature[]","components":[{"name":"v","type":"uint8","internalType":"uint8"},{"name":"r","type":"bytes32","internalType":"bytes32"},{"name":"s","type":"bytes32","internalType":"bytes32"}]},{"name":"revoker","type":"address","internalType":"address"},{"name":"deadline","type":"uint64","internalType":"uint64"}]}],"outputs":[],"stateMutability":"payable"},{"type":"function","name":"multiRevokeOffchain","inputs":[{"name":"data","type":"bytes32[]","internalType":"bytes32[]"}],"outputs":[{"name":"","type":"uint64","internalType":"uint64"}],"stateMutability":"nonpayable"},{"type":"function","name":"multiTimestamp","inputs":[{"name":"data","type":"bytes32[]","internalType":"bytes32[]"}],"outputs":[{"name":"","type":"uint64","internalType":"uint64"}],"stateMutability":"nonpayable"},{"type":"function","name":"revoke","inputs":[{"name":"request","type":"tuple","internalType":"struct RevocationRequest","components":[{"name":"schema","type":"bytes32","internalType":"bytes32"},{"name":"data","type":"tuple","internalType":"struct RevocationRequestData","components":[{"name":"uid","type":"bytes32","internalType":"bytes32"},{"name":"value","type":"uint256","internalType":"uint256"}]}]}],"outputs":[],"stateMutability":"payable"},{"type":"function","name":"revokeByDelegation","inputs":[{"name":"delegatedRequest","type":"tuple","internalType":"struct DelegatedRevocationRequest","components":[{"name":"schema","type":"bytes32","internalType":"bytes32"},{"name":"data","type":"tuple","internalType":"struct RevocationRequestData","components":[{"name":"uid","type":"bytes32","internalType":"bytes32"},{"name":"value","type":"uint256","internalType":"uint256"}]},{"name":"signature","type":"tuple","internalType":"struct Signature","components":[{"name":"v","type":"uint8","internalType":"uint8"},{"name":"r","type":"bytes32","internalType":"bytes32"},{"name":"s","type":"bytes32","internalType":"bytes32"}]},{"name":"revoker","type":"address","internalType":"address"},{"name":"deadline","type":"uint64","internalType":"uint64"}]}],"outputs":[],"stateMutability":"payable"},{"type":"function","name":"revokeOffchain","inputs":[{"name":"data","type":"bytes32","internalType":"bytes32"}],"outputs":[{"name":"","type":"uint64","internalType":"uint64"}],"stateMutability":"nonpayable"},{"type":"function","name":"timestamp","inputs":[{"name":"data","type":"bytes32","internalType":"bytes32"}],"outputs":[{"name":"","type":"uint64","internalType":"uint64"}],"stateMutability":"nonpayable"},{"type":"function","name":"version","inputs":[],"outputs":[{"name":"","type":"string","internalType":"string"}],"stateMutability":"view"},{"type":"event","name":"Attested","inputs":[{"name":"recipient","type":"address","indexed":true,"internalType":"address"},{"name":"attester","type":"address","indexed":true,"internalType":"address"},{"name":"uid","type":"bytes32","indexed":false,"internalType":"bytes32"},{"name":"schemaUID","type":"bytes32","indexed":true,"internalType":"bytes32"}],"anonymous":false},{"type":"event","name":"EIP712DomainChanged","inputs":[],"anonymous":false},{"type":"event","name":"NonceIncreased","inputs":[{"name":"oldNonce","type":"uint256","indexed":false,"internalType":"uint256"},{"name":"newNonce","type":"uint256","indexed":false,"internalType":"uint256"}],"anonymous":false},{"type":"event","name":"Revoked","inputs":[{"name":"recipient","type":"address","indexed":true,"internalType":"address"},{"name":"attester","type":"address","indexed":true,"internalType":"address"},{"name":"uid","type":"bytes32","indexed":false,"internalType":"bytes32"},{"name":"schemaUID","type":"bytes32","indexed":true,"internalType":"bytes32"}],"anonymous":false},{"type":"event","name":"RevokedOffchain","inputs":[{"name":"revoker","type":"address","indexed":true,"internalType":"address"},{"name":"data","type":"bytes32","indexed":true,"internalType":"bytes32"},{"name":"timestamp","type":"uint64","indexed":true,"internalType":"uint64"}],"anonymous":false},{"type":"event","name":"Timestamped","inputs":[{"name":"data","type":"bytes32","indexed":true,"internalType":"bytes32"},{"name":"timestamp","type":"uint64","indexed":true,"internalType":"uint64"}],"anonymous":false},{"type":"error","name":"AccessDenied","inputs":[]},{"type":"error","name":"AlreadyRevoked","inputs":[]},{"type":"error","name":"AlreadyRevokedOffchain","inputs":[]},{"type":"error","name":"AlreadyTimestamped","inputs":[]},{"type":"error","name":"DeadlineExpired","inputs":[]},{"type":"error","name":"FailedCall","inputs":[]},{"type":"error","name":"InsufficientBalance","inputs":[{"name":"balance","type":"uint256","internalType":"uint256"},{"name":"needed","type":"uint256","internalType":"uint256"}]},{"type":"error","name":"InsufficientValue","inputs":[]},{"type":"error","name":"InvalidAttestation","inputs":[]},{"type":"error","name":"InvalidAttestations","inputs":[]},{"type":"error","name":"InvalidExpirationTime","inputs":[]},{"type":"error","name":"InvalidLength","inputs":[]},{"type":"error","name":"InvalidNonce","inputs":[]},{"type":"error","name":"InvalidOffset","inputs":[]},{"type":"error","name":"InvalidRegistry","inputs":[]},{"type":"error","name":"InvalidRevocation","inputs":[]},{"type":"error","name":"InvalidRevocations","inputs":[]},{"type":"error","name":"InvalidSchema","inputs":[]},{"type":"error","name":"InvalidShortString","inputs":[]},{"type":"error","name":"InvalidSignature","inputs":[]},{"type":"error","name":"InvalidVerifier","inputs":[]},{"type":"error","name":"Irrevocable","inputs":[]},{"type":"error","name":"NotFound","inputs":[]},{"type":"error","name":"NotPayable","inputs":[]},{"type":"error","name":"StringTooLong","inputs":[{"name":"str","type":"string","internalType":"string"}]},{"type":"error","name":"WrongSchema","inputs":[]}],"bytecode":{"object":"0x6101e0604052348015610010575f5ffd5b5060405161684e38038061684e833981810160405281019061003291906103a3565b6040518060400160405280600381526020017f45415300000000000000000000000000000000000000000000000000000000008152506040518060400160405280600581526020017f312e342e300000000000000000000000000000000000000000000000000000008152508181600160045f82608081815250508160a081815250508060c081815250505050506100d35f8361021e60201b90919060201c565b61018081815250506100ef60018261021e60201b90919060201c565b6101a08181525050818051906020012061014081815250508080519060200120610160818152505046610100818152505061012e61026b60201b60201c565b60e081815250503073ffffffffffffffffffffffffffffffffffffffff166101208173ffffffffffffffffffffffffffffffffffffffff16815250505050816002908161017b919061060b565b5050505f73ffffffffffffffffffffffffffffffffffffffff168173ffffffffffffffffffffffffffffffffffffffff16036101e3576040517f11a1e69700000000000000000000000000000000000000000000000000000000815260040160405180910390fd5b8073ffffffffffffffffffffffffffffffffffffffff166101c08173ffffffffffffffffffffffffffffffffffffffff16815250505061087a565b5f60208351101561023f57610238836102c660201b60201c565b9050610265565b8261024f8361032b60201b60201c565b5f01908161025d919061060b565b5060ff5f1b90505b92915050565b5f7f8b73c3c69bb8fe3d512ecc4cf759cc79239f7b179b0ffacaa9a75d522b39400f610140516101605146306040516020016102ab959493929190610710565b60405160208183030381529060405280519060200120905090565b5f5f829050601f8151111561031257826040517f305a27a900000000000000000000000000000000000000000000000000000000815260040161030991906107c7565b60405180910390fd5b80518161031e90610814565b5f1c175f1b915050919050565b5f819050919050565b5f5ffd5b5f73ffffffffffffffffffffffffffffffffffffffff82169050919050565b5f61036182610338565b9050919050565b5f61037282610357565b9050919050565b61038281610368565b811461038c575f5ffd5b50565b5f8151905061039d81610379565b92915050565b5f602082840312156103b8576103b7610334565b5b5f6103c58482850161038f565b91505092915050565b5f81519050919050565b7f4e487b71000000000000000000000000000000000000000000000000000000005f52604160045260245ffd5b7f4e487b71000000000000000000000000000000000000000000000000000000005f52602260045260245ffd5b5f600282049050600182168061044957607f821691505b60208210810361045c5761045b610405565b5b50919050565b5f819050815f5260205f209050919050565b5f6020601f8301049050919050565b5f82821b905092915050565b5f600883026104be7fffffffffffffffffffffffffffffffffffffffffffffffffffffffffffffffff82610483565b6104c88683610483565b95508019841693508086168417925050509392505050565b5f819050919050565b5f819050919050565b5f61050c610507610502846104e0565b6104e9565b6104e0565b9050919050565b5f819050919050565b610525836104f2565b61053961053182610513565b84845461048f565b825550505050565b5f5f905090565b610550610541565b61055b81848461051c565b505050565b5b8181101561057e576105735f82610548565b600181019050610561565b5050565b601f8211156105c35761059481610462565b61059d84610474565b810160208510156105ac578190505b6105c06105b885610474565b830182610560565b50505b505050565b5f82821c905092915050565b5f6105e35f19846008026105c8565b1980831691505092915050565b5f6105fb83836105d4565b9150826002028217905092915050565b610614826103ce565b67ffffffffffffffff81111561062d5761062c6103d8565b5b6106378254610432565b610642828285610582565b5f60209050601f831160018114610673575f8415610661578287015190505b61066b85826105f0565b8655506106d2565b601f19841661068186610462565b5f5b828110156106a857848901518255600182019150602085019450602081019050610683565b868310156106c557848901516106c1601f8916826105d4565b8355505b6001600288020188555050505b505050505050565b5f819050919050565b6106ec816106da565b82525050565b6106fb816104e0565b82525050565b61070a81610357565b82525050565b5f60a0820190506107235f8301886106e3565b61073060208301876106e3565b61073d60408301866106e3565b61074a60608301856106f2565b6107576080830184610701565b9695505050505050565b5f82825260208201905092915050565b8281835e5f83830152505050565b5f601f19601f8301169050919050565b5f610799826103ce565b6107a38185610761565b93506107b3818560208601610771565b6107bc8161077f565b840191505092915050565b5f6020820190508181035f8301526107df818461078f565b905092915050565b5f81519050919050565b5f819050602082019050919050565b5f61080b82516106da565b80915050919050565b5f61081e826107e7565b82610828846107f1565b905061083381610800565b925060208210156108735761086e7fffffffffffffffffffffffffffffffffffffffffffffffffffffffffffffffff83602003600802610483565b831692505b5050919050565b60805160a05160c05160e05161010051610120516101405161016051610180516101a0516101c051615f4d6109015f395f8181611635015281816118f0015261232001525f612c4401525f612c0901525f61347801525f61345701525f612c7901525f612ccf01525f612cf801525f610d4801525f610d1f01525f610cf60152615f4d5ff3fe608060405260043610610165575f3560e01c806384b0196e116100d0578063cf190f3411610089578063e71ff36511610063578063e71ff36514610549578063ed24911d14610585578063f10b5cc8146105af578063f17325e7146105d957610165565b8063cf190f3414610495578063d45c4435146104d1578063e30bb5631461050d57610165565b806384b0196e1461037757806395411525146103a7578063a3112a64146103d7578063a6d4dbc714610413578063b469318d1461042f578063b83010d31461046b57610165565b806344adc90e1161012257806344adc90e1461028157806346926267146102b15780634cb7e9e5146102cd5780634d003070146102e957806354fd4d501461032557806379f7573a1461034f57610165565b80630eabf6601461016957806312b11a171461018557806313893f61146101af57806317d7de7c146101eb5780632d0335ab146102155780633c04271514610251575b5f5ffd5b610183600480360381019061017e9190613cfa565b610609565b005b348015610190575f5ffd5b50610199610794565b6040516101a69190613d5d565b60405180910390f35b3480156101ba575f5ffd5b506101d560048036038101906101d09190613dcb565b6107bd565b6040516101e29190613e38565b60405180910390f35b3480156101f6575f5ffd5b506101ff610818565b60405161020c9190613ec1565b60405180910390f35b348015610220575f5ffd5b5061023b60048036038101906102369190613f3b565b6108a8565b6040516102489190613f7e565b60405180910390f35b61026b60048036038101906102669190613fb9565b6108ee565b6040516102789190613d5d565b60405180910390f35b61029b60048036038101906102969190614055565b6109d9565b6040516102a89190614157565b60405180910390f35b6102cb60048036038101906102c69190614195565b610b53565b005b6102e760048036038101906102e29190614215565b610bf3565b005b3480156102f4575f5ffd5b5061030f600480360381019061030a919061428a565b610cd0565b60405161031c9190613e38565b60405180910390f35b348015610330575f5ffd5b50610339610cef565b6040516103469190613ec1565b60405180910390f35b34801561035a575f5ffd5b50610375600480360381019061037091906142df565b610d92565b005b348015610382575f5ffd5b5061038b610e8b565b60405161039e979695949392919061440a565b60405180910390f35b6103c160048036038101906103bc91906144e1565b610f30565b6040516103ce9190614157565b60405180910390f35b3480156103e2575f5ffd5b506103fd60048036038101906103f8919061428a565b6111cc565b60405161040a919061468d565b60405180910390f35b61042d600480360381019061042891906146cc565b6113ff565b005b34801561043a575f5ffd5b50610455600480360381019061045091906146f8565b6114ca565b6040516104629190613e38565b60405180910390f35b348015610476575f5ffd5b5061047f611533565b60405161048c9190613d5d565b60405180910390f35b3480156104a0575f5ffd5b506104bb60048036038101906104b6919061428a565b61155c565b6040516104c89190613e38565b60405180910390f35b3480156104dc575f5ffd5b506104f760048036038101906104f2919061428a565b61157c565b6040516105049190613e38565b60405180910390f35b348015610518575f5ffd5b50610533600480360381019061052e919061428a565b6115a9565b6040516105409190614745565b60405180910390f35b348015610554575f5ffd5b5061056f600480360381019061056a9190613dcb565b6115ca565b60405161057c9190613e38565b60405180910390f35b348015610590575f5ffd5b50610599611624565b6040516105a69190613d5d565b60405180910390f35b3480156105ba575f5ffd5b506105c3611632565b6040516105d091906147b9565b60405180910390f35b6105f360048036038101906105ee91906147f0565b611659565b6040516106009190613d5d565b60405180910390f35b5f3490505f8383905090505f5f90505b8181101561078d575f60018303821490505f86868481811061063e5761063d614837565b5b90506020028101906106509190614870565b61065990614c66565b90505f816020015190505f815190505f81148061067b57508260400151518114155b156106b2576040517f947d5a8400000000000000000000000000000000000000000000000000000000815260040160405180910390fd5b5f5f90505b8181101561075c576107516040518060a00160405280865f015181526020018584815181106106e9576106e8614837565b5b602002602001015181526020018660400151848151811061070d5761070c614837565b5b60200260200101518152602001866060015173ffffffffffffffffffffffffffffffffffffffff168152602001866080015167ffffffffffffffff16815250611720565b8060010190506106b7565b50610771835f01518385606001518a886118ec565b8761077c9190614ca5565b965050505050806001019050610619565b5050505050565b5f7ffeb2925a02bae3dae48d424a0437a2b6ac939aa9230ddc55a1a76f065d9880765f1b905090565b5f5f6107c7611f94565b90505f8484905090505f5f90505b8181101561080c57610801338787848181106107f4576107f3614837565b5b9050602002013585611f9b565b8060010190506107d5565b50819250505092915050565b60606002805461082790614d05565b80601f016020809104026020016040519081016040528092919081815260200182805461085390614d05565b801561089e5780601f106108755761010080835404028352916020019161089e565b820191905f5260205f20905b81548152906001019060200180831161088157829003601f168201915b5050505050905090565b5f60035f8373ffffffffffffffffffffffffffffffffffffffff1673ffffffffffffffffffffffffffffffffffffffff1681526020019081526020015f20549050919050565b5f610901826108fc90614f6d565b6120cc565b5f600167ffffffffffffffff81111561091d5761091c61489b565b5b60405190808252806020026020018201604052801561095657816020015b610943613b6e565b81526020019060019003908161093b5790505b5090508280602001906109699190614f7f565b61097290614fa6565b815f8151811061098557610984614837565b5b60200260200101819052506109b3835f0135828560a00160208101906109ab9190613f3b565b3460016122b7565b602001515f815181106109c9576109c8614837565b5b6020026020010151915050919050565b60605f8383905090505f8167ffffffffffffffff8111156109fd576109fc61489b565b5b604051908082528060200260200182016040528015610a3057816020015b6060815260200190600190039081610a1b5790505b5090505f5f90505f3490505f5f90505b84811015610b3c575f600186038214905036898984818110610a6557610a64614837565b5b9050602002810190610a779190614fb8565b90505f818060200190610a8a9190614fdf565b905003610ac3576040517f947d5a8400000000000000000000000000000000000000000000000000000000815260040160405180910390fd5b5f610aee825f0135838060200190610adb9190614fdf565b90610ae691906150f2565b3388876122b7565b9050805f015185610aff9190614ca5565b94508060200151878581518110610b1957610b18614837565b5b602002602001018190525080602001515186019550505050806001019050610a40565b50610b478383612963565b94505050505092915050565b5f600167ffffffffffffffff811115610b6f57610b6e61489b565b5b604051908082528060200260200182016040528015610ba857816020015b610b95613bc1565b815260200190600190039081610b8d5790505b50905081602001803603810190610bbf9190615106565b815f81518110610bd257610bd1614837565b5b6020026020010181905250610bee825f013582333460016118ec565b505050565b5f3490505f8383905090505f5f90505b81811015610cc9575f600183038214905036868684818110610c2857610c27614837565b5b9050602002810190610c3a9190615131565b9050610caf815f0135828060200190610c539190615158565b808060200260200160405190810160405280939291908181526020015f905b82821015610ca257848483905060400201803603810190610c939190615106565b81526020019060010190610c72565b50505050503388866118ec565b85610cba9190614ca5565b94505050806001019050610c03565b5050505050565b5f5f610cda611f94565b9050610ce68382612a5d565b80915050919050565b6060610d1a7f0000000000000000000000000000000000000000000000000000000000000000612b37565b610d437f0000000000000000000000000000000000000000000000000000000000000000612b37565b610d6c7f0000000000000000000000000000000000000000000000000000000000000000612b37565b604051602001610d7e9392919061523e565b604051602081830303815290604052905090565b5f60035f3373ffffffffffffffffffffffffffffffffffffffff1673ffffffffffffffffffffffffffffffffffffffff1681526020019081526020015f20549050808211610e0c576040517f756688fe00000000000000000000000000000000000000000000000000000000815260040160405180910390fd5b8160035f3373ffffffffffffffffffffffffffffffffffffffff1673ffffffffffffffffffffffffffffffffffffffff1681526020019081526020015f20819055507f57b09af877df9068fd60a69d7b21f5576b8b38955812d6ae4ac52942f1e38fb78183604051610e7f929190615284565b60405180910390a15050565b5f6060805f5f5f6060610e9c612c01565b610ea4612c3b565b46305f5f1b5f67ffffffffffffffff811115610ec357610ec261489b565b5b604051908082528060200260200182016040528015610ef15781602001602082028036833780820191505090505b507f0f00000000000000000000000000000000000000000000000000000000000000959493929190965096509650965096509650965090919293949596565b60605f8383905090505f8167ffffffffffffffff811115610f5457610f5361489b565b5b604051908082528060200260200182016040528015610f8757816020015b6060815260200190600190039081610f725790505b5090505f5f90505f3490505f5f90505b848110156111b5575f600186038214905036898984818110610fbc57610fbb614837565b5b9050602002810190610fce91906152ab565b9050365f828060200190610fe29190614fdf565b915091505f8282905090505f81148061100c575083806040019061100691906152d2565b90508114155b15611043576040517f947d5a8400000000000000000000000000000000000000000000000000000000815260040160405180910390fd5b5f5f90505b81811015611134576111296040518060a00160405280875f0135815260200186868581811061107a57611079614837565b5b905060200281019061108c9190614f7f565b61109590614fa6565b81526020018780604001906110aa91906152d2565b858181106110bb576110ba614837565b5b9050606002018036038101906110d19190615334565b81526020018760600160208101906110e99190613f3b565b73ffffffffffffffffffffffffffffffffffffffff168152602001876080016020810190611117919061535f565b67ffffffffffffffff168152506120cc565b806001019050611048565b505f611164855f013585859061114a91906150f2565b87606001602081019061115d9190613f3b565b8b8a6122b7565b9050805f0151886111759190614ca5565b975080602001518a888151811061118f5761118e614837565b5b602002602001018190525080602001515189019850505050505050806001019050610f97565b506111c08383612963565b94505050505092915050565b6111d4613bd9565b60045f8381526020019081526020015f20604051806101400160405290815f820154815260200160018201548152602001600282015f9054906101000a900467ffffffffffffffff1667ffffffffffffffff1667ffffffffffffffff1681526020016002820160089054906101000a900467ffffffffffffffff1667ffffffffffffffff1667ffffffffffffffff1681526020016002820160109054906101000a900467ffffffffffffffff1667ffffffffffffffff1667ffffffffffffffff16815260200160038201548152602001600482015f9054906101000a900473ffffffffffffffffffffffffffffffffffffffff1673ffffffffffffffffffffffffffffffffffffffff1673ffffffffffffffffffffffffffffffffffffffff168152602001600582015f9054906101000a900473ffffffffffffffffffffffffffffffffffffffff1673ffffffffffffffffffffffffffffffffffffffff1673ffffffffffffffffffffffffffffffffffffffff1681526020016005820160149054906101000a900460ff1615151515815260200160068201805461137890614d05565b80601f01602080910402602001604051908101604052809291908181526020018280546113a490614d05565b80156113ef5780601f106113c6576101008083540402835291602001916113ef565b820191905f5260205f20905b8154815290600101906020018083116113d257829003601f168201915b5050505050815250509050919050565b611418818036038101906114139190615414565b611720565b5f600167ffffffffffffffff8111156114345761143361489b565b5b60405190808252806020026020018201604052801561146d57816020015b61145a613bc1565b8152602001906001900390816114525790505b509050816020018036038101906114849190615106565b815f8151811061149757611496614837565b5b60200260200101819052506114c5825f0135828460c00160208101906114bd9190613f3b565b3460016118ec565b505050565b5f60065f8473ffffffffffffffffffffffffffffffffffffffff1673ffffffffffffffffffffffffffffffffffffffff1681526020019081526020015f205f8381526020019081526020015f205f9054906101000a900467ffffffffffffffff16905092915050565b5f7fb5d556f07587ec0f08cf386545cc4362c702a001650c2058002615ee5c9d1e755f1b905090565b5f5f611566611f94565b9050611573338483611f9b565b80915050919050565b5f60055f8381526020019081526020015f205f9054906101000a900467ffffffffffffffff169050919050565b5f5f5f1b60045f8481526020019081526020015f205f015414159050919050565b5f5f6115d4611f94565b90505f8484905090505f5f90505b818110156116185761160d868683818110611600576115ff614837565b5b9050602002013584612a5d565b8060010190506115e2565b50819250505092915050565b5f61162d612c76565b905090565b5f7f0000000000000000000000000000000000000000000000000000000000000000905090565b5f5f600167ffffffffffffffff8111156116765761167561489b565b5b6040519080825280602002602001820160405280156116af57816020015b61169c613b6e565b8152602001906001900390816116945790505b5090508280602001906116c29190614f7f565b6116cb90614fa6565b815f815181106116de576116dd614837565b5b60200260200101819052506116fa835f013582333460016122b7565b602001515f815181106117105761170f614837565b5b6020026020010151915050919050565b5f67ffffffffffffffff16816080015167ffffffffffffffff1614158015611766575061174b611f94565b67ffffffffffffffff16816080015167ffffffffffffffff16105b1561179d576040517f1ab7da6b00000000000000000000000000000000000000000000000000000000815260040160405180910390fd5b5f816020015190505f826040015190505f6118717fb5d556f07587ec0f08cf386545cc4362c702a001650c2058002615ee5c9d1e755f1b8560600151865f0151865f0151876020015160035f8b6060015173ffffffffffffffffffffffffffffffffffffffff1673ffffffffffffffffffffffffffffffffffffffff1681526020019081526020015f205f81548092919061183790615440565b919050558a608001516040516020016118569796959493929190615487565b60405160208183030381529060405280519060200120612d2c565b90506118b084606001518284602001518560400151865f015160405160200161189c93929190615548565b604051602081830303815290604052612d45565b6118e6576040517f8baa579f00000000000000000000000000000000000000000000000000000000815260040160405180910390fd5b50505050565b5f5f7f000000000000000000000000000000000000000000000000000000000000000073ffffffffffffffffffffffffffffffffffffffff1663a2ea7c6e886040518263ffffffff1660e01b81526004016119479190613d5d565b5f60405180830381865afa158015611961573d5f5f3e3d5ffd5b505050506040513d5f823e3d601f19601f820116820180604052508101906119899190615716565b90505f5f1b815f0151036119c9576040517fbf37b20e00000000000000000000000000000000000000000000000000000000815260040160405180910390fd5b5f865190505f8167ffffffffffffffff8111156119e9576119e861489b565b5b604051908082528060200260200182016040528015611a2257816020015b611a0f613bd9565b815260200190600190039081611a075790505b5090505f8267ffffffffffffffff811115611a4057611a3f61489b565b5b604051908082528060200260200182016040528015611a6e5781602001602082028036833780820191505090505b5090505f5f90505b83811015611f75575f8a8281518110611a9257611a91614837565b5b602002602001015190505f60045f835f015181526020019081526020015f2090505f5f1b815f015403611af1576040517fc5723b5100000000000000000000000000000000000000000000000000000000815260040160405180910390fd5b8c816001015414611b2e576040517fbf37b20e00000000000000000000000000000000000000000000000000000000815260040160405180910390fd5b8a73ffffffffffffffffffffffffffffffffffffffff16816005015f9054906101000a900473ffffffffffffffffffffffffffffffffffffffff1673ffffffffffffffffffffffffffffffffffffffff1614611bb6576040517f4ca8886700000000000000000000000000000000000000000000000000000000815260040160405180910390fd5b8060050160149054906101000a900460ff16611bfe576040517f157bd4c300000000000000000000000000000000000000000000000000000000815260040160405180910390fd5b5f8160020160109054906101000a900467ffffffffffffffff1667ffffffffffffffff1614611c59576040517f905e710700000000000000000000000000000000000000000000000000000000815260040160405180910390fd5b611c61611f94565b8160020160106101000a81548167ffffffffffffffff021916908367ffffffffffffffff16021790555080604051806101400160405290815f820154815260200160018201548152602001600282015f9054906101000a900467ffffffffffffffff1667ffffffffffffffff1667ffffffffffffffff1681526020016002820160089054906101000a900467ffffffffffffffff1667ffffffffffffffff1667ffffffffffffffff1681526020016002820160109054906101000a900467ffffffffffffffff1667ffffffffffffffff1667ffffffffffffffff16815260200160038201548152602001600482015f9054906101000a900473ffffffffffffffffffffffffffffffffffffffff1673ffffffffffffffffffffffffffffffffffffffff1673ffffffffffffffffffffffffffffffffffffffff168152602001600582015f9054906101000a900473ffffffffffffffffffffffffffffffffffffffff1673ffffffffffffffffffffffffffffffffffffffff1673ffffffffffffffffffffffffffffffffffffffff1681526020016005820160149054906101000a900460ff16151515158152602001600682018054611e1f90614d05565b80601f0160208091040260200160405190810160405280929190818152602001828054611e4b90614d05565b8015611e965780601f10611e6d57610100808354040283529160200191611e96565b820191905f5260205f20905b815481529060010190602001808311611e7957829003601f168201915b505050505081525050858481518110611eb257611eb1614837565b5b60200260200101819052508160200151848481518110611ed557611ed4614837565b5b6020026020010181815250508c8b73ffffffffffffffffffffffffffffffffffffffff16868581518110611f0c57611f0b614837565b5b602002602001015160c0015173ffffffffffffffffffffffffffffffffffffffff167ff930a6e2523c9cc298691873087a740550b8fc85a0680830414c148ed927f615855f0151604051611f609190613d5d565b60405180910390a45050806001019050611a76565b50611f8584838360018b8b612df1565b94505050505095945050505050565b5f42905090565b5f60065f8573ffffffffffffffffffffffffffffffffffffffff1673ffffffffffffffffffffffffffffffffffffffff1681526020019081526020015f2090505f815f8581526020019081526020015f205f9054906101000a900467ffffffffffffffff1667ffffffffffffffff1614612041576040517fec9d6eeb00000000000000000000000000000000000000000000000000000000815260040160405180910390fd5b81815f8581526020019081526020015f205f6101000a81548167ffffffffffffffff021916908367ffffffffffffffff1602179055508167ffffffffffffffff16838573ffffffffffffffffffffffffffffffffffffffff167f92a1f7a41a7c585a8b09e25b195e225b1d43248daca46b0faf9e0792777a222960405160405180910390a450505050565b5f67ffffffffffffffff16816080015167ffffffffffffffff161415801561211257506120f7611f94565b67ffffffffffffffff16816080015167ffffffffffffffff16105b15612149576040517f1ab7da6b00000000000000000000000000000000000000000000000000000000815260040160405180910390fd5b5f816020015190505f826040015190505f61223c7ffeb2925a02bae3dae48d424a0437a2b6ac939aa9230ddc55a1a76f065d9880765f1b8560600151865f0151865f01518760200151886040015189606001518a60800151805190602001208b60a0015160035f8f6060015173ffffffffffffffffffffffffffffffffffffffff1673ffffffffffffffffffffffffffffffffffffffff1681526020019081526020015f205f8154809291906121fe90615440565b919050558e608001516040516020016122219b9a9998979695949392919061575d565b60405160208183030381529060405280519060200120612d2c565b905061227b84606001518284602001518560400151865f015160405160200161226793929190615548565b604051602081830303815290604052612d45565b6122b1576040517f8baa579f00000000000000000000000000000000000000000000000000000000815260040160405180910390fd5b50505050565b6122bf613c6f565b5f855190506122cc613c6f565b8167ffffffffffffffff8111156122e6576122e561489b565b5b6040519080825280602002602001820160405280156123145781602001602082028036833780820191505090505b5081602001819052505f7f000000000000000000000000000000000000000000000000000000000000000073ffffffffffffffffffffffffffffffffffffffff1663a2ea7c6e8a6040518263ffffffff1660e01b81526004016123779190613d5d565b5f60405180830381865afa158015612391573d5f5f3e3d5ffd5b505050506040513d5f823e3d601f19601f820116820180604052508101906123b99190615716565b90505f5f1b815f0151036123f9576040517fbf37b20e00000000000000000000000000000000000000000000000000000000815260040160405180910390fd5b5f8367ffffffffffffffff8111156124145761241361489b565b5b60405190808252806020026020018201604052801561244d57816020015b61243a613bd9565b8152602001906001900390816124325790505b5090505f8467ffffffffffffffff81111561246b5761246a61489b565b5b6040519080825280602002602001820160405280156124995781602001602082028036833780820191505090505b5090505f5f90505b8581101561293b575f8b82815181106124bd576124bc614837565b5b602002602001015190505f67ffffffffffffffff16816020015167ffffffffffffffff161415801561250e57506124f2611f94565b67ffffffffffffffff16816020015167ffffffffffffffff1611155b15612545576040517f08e8b93700000000000000000000000000000000000000000000000000000000815260040160405180910390fd5b8460400151158015612558575080604001515b1561258f576040517f157bd4c300000000000000000000000000000000000000000000000000000000815260040160405180910390fd5b5f6040518061014001604052805f5f1b81526020018f81526020016125b2611f94565b67ffffffffffffffff168152602001836020015167ffffffffffffffff1681526020015f67ffffffffffffffff16815260200183606001518152602001835f015173ffffffffffffffffffffffffffffffffffffffff1681526020018d73ffffffffffffffffffffffffffffffffffffffff168152602001836040015115158152602001836080015181525090505f5f5f90505b6001156126815761265783826131d3565b91505f5f1b60045f8481526020019081526020015f205f0154031561268157806001019050612646565b81835f0181815250508260045f8481526020019081526020015f205f820151815f0155602082015181600101556040820151816002015f6101000a81548167ffffffffffffffff021916908367ffffffffffffffff16021790555060608201518160020160086101000a81548167ffffffffffffffff021916908367ffffffffffffffff16021790555060808201518160020160106101000a81548167ffffffffffffffff021916908367ffffffffffffffff16021790555060a0820151816003015560c0820151816004015f6101000a81548173ffffffffffffffffffffffffffffffffffffffff021916908373ffffffffffffffffffffffffffffffffffffffff16021790555060e0820151816005015f6101000a81548173ffffffffffffffffffffffffffffffffffffffff021916908373ffffffffffffffffffffffffffffffffffffffff1602179055506101008201518160050160146101000a81548160ff021916908315150217905550610120820151816006019081612807919061599d565b509050505f5f1b84606001511461285c5761282584606001516115a9565b61285b576040517fc5723b5100000000000000000000000000000000000000000000000000000000815260040160405180910390fd5b5b828786815181106128705761286f614837565b5b60200260200101819052508360a0015186868151811061289357612892614837565b5b60200260200101818152505081896020015186815181106128b7576128b6614837565b5b6020026020010181815250508f8e73ffffffffffffffffffffffffffffffffffffffff16855f015173ffffffffffffffffffffffffffffffffffffffff167f8bf46bf4cfd674fa735a3d63ec1c9ad4153f033c290341f3a588b75685141b35856040516129249190613d5d565b60405180910390a4505050508060010190506124a1565b5061294a8383835f8c8c612df1565b845f018181525050839550505050505095945050505050565b60605f8267ffffffffffffffff8111156129805761297f61489b565b5b6040519080825280602002602001820160405280156129ae5781602001602082028036833780820191505090505b5090505f5f90505f855190505f5f90505b81811015612a50575f8782815181106129db576129da614837565b5b602002602001015190505f815190505f5f90505b81811015612a4257828181518110612a0a57612a09614837565b5b6020026020010151878781518110612a2557612a24614837565b5b6020026020010181815250508560010195508060010190506129ef565b5050508060010190506129bf565b5082935050505092915050565b5f60055f8481526020019081526020015f205f9054906101000a900467ffffffffffffffff1667ffffffffffffffff1614612ac4576040517f2e26794600000000000000000000000000000000000000000000000000000000815260040160405180910390fd5b8060055f8481526020019081526020015f205f6101000a81548167ffffffffffffffff021916908367ffffffffffffffff1602179055508067ffffffffffffffff16827f5aafceeb1c7ad58e4a84898bdee37c02c0fc46e7d24e6b60e8209449f183459f60405160405180910390a35050565b60605f6001612b4584613235565b0190505f8167ffffffffffffffff811115612b6357612b6261489b565b5b6040519080825280601f01601f191660200182016040528015612b955781602001600182028036833780820191505090505b5090505f82602083010190505b600115612bf6578080600190039150507f3031323334353637383961626364656600000000000000000000000000000000600a86061a8153600a8581612beb57612bea615a6c565b5b0494505f8503612ba2575b819350505050919050565b6060612c365f7f000000000000000000000000000000000000000000000000000000000000000061338690919063ffffffff16565b905090565b6060612c7160017f000000000000000000000000000000000000000000000000000000000000000061338690919063ffffffff16565b905090565b5f7f000000000000000000000000000000000000000000000000000000000000000073ffffffffffffffffffffffffffffffffffffffff163073ffffffffffffffffffffffffffffffffffffffff16148015612cf157507f000000000000000000000000000000000000000000000000000000000000000046145b15612d1e577f00000000000000000000000000000000000000000000000000000000000000009050612d29565b612d26613433565b90505b90565b5f612d3e612d38612c76565b836134c8565b9050919050565b5f5f8473ffffffffffffffffffffffffffffffffffffffff163b03612ddc575f5f612d708585613508565b50915091505f6003811115612d8857612d87615a99565b5b816003811115612d9b57612d9a615a99565b5b148015612dd357508573ffffffffffffffffffffffffffffffffffffffff168273ffffffffffffffffffffffffffffffffffffffff16145b92505050612dea565b612de784848461355d565b90505b9392505050565b5f5f8651905060018103612e4957612e4188885f81518110612e1657612e15614837565b5b6020026020010151885f81518110612e3157612e30614837565b5b60200260200101518888886135ae565b9150506131c9565b5f886020015190505f73ffffffffffffffffffffffffffffffffffffffff168173ffffffffffffffffffffffffffffffffffffffff1603612f0a575f5f90505b82811015612eef575f888281518110612ea557612ea4614837565b5b602002602001015114612ee4576040517f1574f9f300000000000000000000000000000000000000000000000000000000815260040160405180910390fd5b806001019050612e89565b508315612f0057612eff856138b3565b5b5f925050506131c9565b5f5f90505f8273ffffffffffffffffffffffffffffffffffffffff1663ce46e0466040518163ffffffff1660e01b8152600401602060405180830381865afa158015612f58573d5f5f3e3d5ffd5b505050506040513d601f19601f82011682018060405250810190612f7c9190615ac6565b90505f5f90505b8481101561303e575f8a8281518110612f9f57612f9e614837565b5b602002602001015190505f8103612fb65750613033565b82612fed576040517f1574f9f300000000000000000000000000000000000000000000000000000000815260040160405180910390fd5b88811115613027576040517f1101129400000000000000000000000000000000000000000000000000000000815260040160405180910390fd5b80890398508084019350505b806001019050612f83565b5087156130fd578273ffffffffffffffffffffffffffffffffffffffff166388e5b2d9838c8c6040518463ffffffff1660e01b8152600401613081929190615c83565b60206040518083038185885af115801561309d573d5f5f3e3d5ffd5b50505050506040513d601f19601f820116820180604052508101906130c29190615ac6565b6130f8576040517fbf2f3a8b00000000000000000000000000000000000000000000000000000000815260040160405180910390fd5b6131b1565b8273ffffffffffffffffffffffffffffffffffffffff166391db0b7e838c8c6040518463ffffffff1660e01b8152600401613139929190615c83565b60206040518083038185885af1158015613155573d5f5f3e3d5ffd5b50505050506040513d601f19601f8201168201806040525081019061317a9190615ac6565b6131b0576040517fe8bee83900000000000000000000000000000000000000000000000000000000815260040160405180910390fd5b5b85156131c1576131c0876138b3565b5b819450505050505b9695505050505050565b5f82602001518360c001518460e00151856040015186606001518761010001518860a001518961012001518960405160200161321799989796959493929190615dd6565b60405160208183030381529060405280519060200120905092915050565b5f5f5f90507a184f03e93ff9f4daa797ed6e38ed64bf6a1f0100000000000000008310613291577a184f03e93ff9f4daa797ed6e38ed64bf6a1f010000000000000000838161328757613286615a6c565b5b0492506040810190505b6d04ee2d6d415b85acef810000000083106132ce576d04ee2d6d415b85acef810000000083816132c4576132c3615a6c565b5b0492506020810190505b662386f26fc1000083106132fd57662386f26fc1000083816132f3576132f2615a6c565b5b0492506010810190505b6305f5e1008310613326576305f5e100838161331c5761331b615a6c565b5b0492506008810190505b612710831061334b57612710838161334157613340615a6c565b5b0492506004810190505b6064831061336e576064838161336457613363615a6c565b5b0492506002810190505b600a831061337d576001810190505b80915050919050565b606060ff5f1b83146133a25761339b836138e8565b905061342d565b8180546133ae90614d05565b80601f01602080910402602001604051908101604052809291908181526020018280546133da90614d05565b80156134255780601f106133fc57610100808354040283529160200191613425565b820191905f5260205f20905b81548152906001019060200180831161340857829003601f168201915b505050505090505b92915050565b5f7f8b73c3c69bb8fe3d512ecc4cf759cc79239f7b179b0ffacaa9a75d522b39400f7f00000000000000000000000000000000000000000000000000000000000000007f000000000000000000000000000000000000000000000000000000000000000046306040516020016134ad959493929190615e74565b60405160208183030381529060405280519060200120905090565b5f6040517f190100000000000000000000000000000000000000000000000000000000000081528360028201528260228201526042812091505092915050565b5f5f5f6041845103613548575f5f5f602087015192506040870151915060608701515f1a905061353a8882858561395a565b955095509550505050613556565b5f600285515f1b9250925092505b9250925092565b5f5f631626ba7e60e01b90505f83519050604051828152856004820152604060248201526020820185604483015e60205f60648401838a5afa835f5114601f3d111681169450505050509392505050565b5f5f876020015190505f73ffffffffffffffffffffffffffffffffffffffff168173ffffffffffffffffffffffffffffffffffffffff160361363c575f8614613623576040517f1574f9f300000000000000000000000000000000000000000000000000000000815260040160405180910390fd5b821561363357613632846138b3565b5b5f9150506138a9565b5f8614613726578073ffffffffffffffffffffffffffffffffffffffff1663ce46e0466040518163ffffffff1660e01b8152600401602060405180830381865afa15801561368c573d5f5f3e3d5ffd5b505050506040513d601f19601f820116820180604052508101906136b09190615ac6565b6136e6576040517f1574f9f300000000000000000000000000000000000000000000000000000000815260040160405180910390fd5b83861115613720576040517f1101129400000000000000000000000000000000000000000000000000000000815260040160405180910390fd5b85840393505b84156137e2578073ffffffffffffffffffffffffffffffffffffffff1663e49617e187896040518363ffffffff1660e01b8152600401613766919061468d565b60206040518083038185885af1158015613782573d5f5f3e3d5ffd5b50505050506040513d601f19601f820116820180604052508101906137a79190615ac6565b6137dd576040517fccf3bb2700000000000000000000000000000000000000000000000000000000815260040160405180910390fd5b613894565b8073ffffffffffffffffffffffffffffffffffffffff1663e60c350587896040518363ffffffff1660e01b815260040161381c919061468d565b60206040518083038185885af1158015613838573d5f5f3e3d5ffd5b50505050506040513d601f19601f8201168201806040525081019061385d9190615ac6565b613893576040517fbd8ba84d00000000000000000000000000000000000000000000000000000000815260040160405180910390fd5b5b82156138a4576138a3846138b3565b5b859150505b9695505050505050565b5f8111156138e5576138e4813373ffffffffffffffffffffffffffffffffffffffff16613a4190919063ffffffff16565b5b50565b60605f6138f483613af8565b90505f602067ffffffffffffffff8111156139125761391161489b565b5b6040519080825280601f01601f1916602001820160405280156139445781602001600182028036833780820191505090505b5090508181528360208201528092505050919050565b5f5f5f7f7fffffffffffffffffffffffffffffff5d576e7357a4501ddfe92f46681b20a0845f1c1115613996575f600385925092509250613a37565b5f6001888888886040515f81526020016040526040516139b99493929190615ed4565b6020604051602081039080840390855afa1580156139d9573d5f5f3e3d5ffd5b5050506020604051035190505f73ffffffffffffffffffffffffffffffffffffffff168173ffffffffffffffffffffffffffffffffffffffff1603613a2a575f60015f5f1b93509350935050613a37565b805f5f5f1b935093509350505b9450945094915050565b80471015613a885747816040517fcf479181000000000000000000000000000000000000000000000000000000008152600401613a7f929190615284565b60405180910390fd5b613aa1828260405180602001604052805f815250613b46565b613af4575f613aae613b5c565b1115613ac157613abc613b63565b613af3565b6040517fd6bda27500000000000000000000000000000000000000000000000000000000815260040160405180910390fd5b5b5050565b5f5f60ff835f1c169050601f811115613b3d576040517fb3512b0c00000000000000000000000000000000000000000000000000000000815260040160405180910390fd5b80915050919050565b5f5f5f83516020850186885af190509392505050565b5f3d905090565b6040513d5f823e3d81fd5b6040518060c001604052805f73ffffffffffffffffffffffffffffffffffffffff1681526020015f67ffffffffffffffff1681526020015f151581526020015f8152602001606081526020015f81525090565b60405180604001604052805f81526020015f81525090565b6040518061014001604052805f81526020015f81526020015f67ffffffffffffffff1681526020015f67ffffffffffffffff1681526020015f67ffffffffffffffff1681526020015f81526020015f73ffffffffffffffffffffffffffffffffffffffff1681526020015f73ffffffffffffffffffffffffffffffffffffffff1681526020015f15158152602001606081525090565b60405180604001604052805f8152602001606081525090565b5f604051905090565b5f5ffd5b5f5ffd5b5f5ffd5b5f5ffd5b5f5ffd5b5f5f83601f840112613cba57613cb9613c99565b5b8235905067ffffffffffffffff811115613cd757613cd6613c9d565b5b602083019150836020820283011115613cf357613cf2613ca1565b5b9250929050565b5f5f60208385031215613d1057613d0f613c91565b5b5f83013567ffffffffffffffff811115613d2d57613d2c613c95565b5b613d3985828601613ca5565b92509250509250929050565b5f819050919050565b613d5781613d45565b82525050565b5f602082019050613d705f830184613d4e565b92915050565b5f5f83601f840112613d8b57613d8a613c99565b5b8235905067ffffffffffffffff811115613da857613da7613c9d565b5b602083019150836020820283011115613dc457613dc3613ca1565b5b9250929050565b5f5f60208385031215613de157613de0613c91565b5b5f83013567ffffffffffffffff811115613dfe57613dfd613c95565b5b613e0a85828601613d76565b92509250509250929050565b5f67ffffffffffffffff82169050919050565b613e3281613e16565b82525050565b5f602082019050613e4b5f830184613e29565b92915050565b5f81519050919050565b5f82825260208201905092915050565b8281835e5f83830152505050565b5f601f19601f8301169050919050565b5f613e9382613e51565b613e9d8185613e5b565b9350613ead818560208601613e6b565b613eb681613e79565b840191505092915050565b5f6020820190508181035f830152613ed98184613e89565b905092915050565b5f73ffffffffffffffffffffffffffffffffffffffff82169050919050565b5f613f0a82613ee1565b9050919050565b613f1a81613f00565b8114613f24575f5ffd5b50565b5f81359050613f3581613f11565b92915050565b5f60208284031215613f5057613f4f613c91565b5b5f613f5d84828501613f27565b91505092915050565b5f819050919050565b613f7881613f66565b82525050565b5f602082019050613f915f830184613f6f565b92915050565b5f5ffd5b5f60e08284031215613fb057613faf613f97565b5b81905092915050565b5f60208284031215613fce57613fcd613c91565b5b5f82013567ffffffffffffffff811115613feb57613fea613c95565b5b613ff784828501613f9b565b91505092915050565b5f5f83601f84011261401557614014613c99565b5b8235905067ffffffffffffffff81111561403257614031613c9d565b5b60208301915083602082028301111561404e5761404d613ca1565b5b9250929050565b5f5f6020838503121561406b5761406a613c91565b5b5f83013567ffffffffffffffff81111561408857614087613c95565b5b61409485828601614000565b92509250509250929050565b5f81519050919050565b5f82825260208201905092915050565b5f819050602082019050919050565b6140d281613d45565b82525050565b5f6140e383836140c9565b60208301905092915050565b5f602082019050919050565b5f614105826140a0565b61410f81856140aa565b935061411a836140ba565b805f5b8381101561414a57815161413188826140d8565b975061413c836140ef565b92505060018101905061411d565b5085935050505092915050565b5f6020820190508181035f83015261416f81846140fb565b905092915050565b5f6060828403121561418c5761418b613f97565b5b81905092915050565b5f606082840312156141aa576141a9613c91565b5b5f6141b784828501614177565b91505092915050565b5f5f83601f8401126141d5576141d4613c99565b5b8235905067ffffffffffffffff8111156141f2576141f1613c9d565b5b60208301915083602082028301111561420e5761420d613ca1565b5b9250929050565b5f5f6020838503121561422b5761422a613c91565b5b5f83013567ffffffffffffffff81111561424857614247613c95565b5b614254858286016141c0565b92509250509250929050565b61426981613d45565b8114614273575f5ffd5b50565b5f8135905061428481614260565b92915050565b5f6020828403121561429f5761429e613c91565b5b5f6142ac84828501614276565b91505092915050565b6142be81613f66565b81146142c8575f5ffd5b50565b5f813590506142d9816142b5565b92915050565b5f602082840312156142f4576142f3613c91565b5b5f614301848285016142cb565b91505092915050565b5f7fff0000000000000000000000000000000000000000000000000000000000000082169050919050565b61433e8161430a565b82525050565b61434d81613f00565b82525050565b5f81519050919050565b5f82825260208201905092915050565b5f819050602082019050919050565b61438581613f66565b82525050565b5f614396838361437c565b60208301905092915050565b5f602082019050919050565b5f6143b882614353565b6143c2818561435d565b93506143cd8361436d565b805f5b838110156143fd5781516143e4888261438b565b97506143ef836143a2565b9250506001810190506143d0565b5085935050505092915050565b5f60e08201905061441d5f83018a614335565b818103602083015261442f8189613e89565b905081810360408301526144438188613e89565b90506144526060830187613f6f565b61445f6080830186614344565b61446c60a0830185613d4e565b81810360c083015261447e81846143ae565b905098975050505050505050565b5f5f83601f8401126144a1576144a0613c99565b5b8235905067ffffffffffffffff8111156144be576144bd613c9d565b5b6020830191508360208202830111156144da576144d9613ca1565b5b9250929050565b5f5f602083850312156144f7576144f6613c91565b5b5f83013567ffffffffffffffff81111561451457614513613c95565b5b6145208582860161448c565b92509250509250929050565b61453581613e16565b82525050565b61454481613f00565b82525050565b5f8115159050919050565b61455e8161454a565b82525050565b5f81519050919050565b5f82825260208201905092915050565b5f61458882614564565b614592818561456e565b93506145a2818560208601613e6b565b6145ab81613e79565b840191505092915050565b5f61014083015f8301516145cc5f8601826140c9565b5060208301516145df60208601826140c9565b5060408301516145f2604086018261452c565b506060830151614605606086018261452c565b506080830151614618608086018261452c565b5060a083015161462b60a08601826140c9565b5060c083015161463e60c086018261453b565b5060e083015161465160e086018261453b565b50610100830151614666610100860182614555565b50610120830151848203610120860152614680828261457e565b9150508091505092915050565b5f6020820190508181035f8301526146a581846145b6565b905092915050565b5f61010082840312156146c3576146c2613f97565b5b81905092915050565b5f61010082840312156146e2576146e1613c91565b5b5f6146ef848285016146ad565b91505092915050565b5f5f6040838503121561470e5761470d613c91565b5b5f61471b85828601613f27565b925050602061472c85828601614276565b9150509250929050565b61473f8161454a565b82525050565b5f6020820190506147585f830184614736565b92915050565b5f819050919050565b5f61478161477c61477784613ee1565b61475e565b613ee1565b9050919050565b5f61479282614767565b9050919050565b5f6147a382614788565b9050919050565b6147b381614799565b82525050565b5f6020820190506147cc5f8301846147aa565b92915050565b5f604082840312156147e7576147e6613f97565b5b81905092915050565b5f6020828403121561480557614804613c91565b5b5f82013567ffffffffffffffff81111561482257614821613c95565b5b61482e848285016147d2565b91505092915050565b7f4e487b71000000000000000000000000000000000000000000000000000000005f52603260045260245ffd5b5f5ffd5b5f5ffd5b5f5ffd5b5f8235600160a00383360303811261488b5761488a614864565b5b80830191505092915050565b5f5ffd5b7f4e487b71000000000000000000000000000000000000000000000000000000005f52604160045260245ffd5b6148d182613e79565b810181811067ffffffffffffffff821117156148f0576148ef61489b565b5b80604052505050565b5f614902613c88565b905061490e82826148c8565b919050565b5f5ffd5b5f67ffffffffffffffff8211156149315761493061489b565b5b602082029050602081019050919050565b5f6040828403121561495757614956614897565b5b61496160406148f9565b90505f61497084828501614276565b5f830152506020614983848285016142cb565b60208301525092915050565b5f6149a161499c84614917565b6148f9565b905080838252602082019050604084028301858111156149c4576149c3613ca1565b5b835b818110156149ed57806149d98882614942565b8452602084019350506040810190506149c6565b5050509392505050565b5f82601f830112614a0b57614a0a613c99565b5b8135614a1b84826020860161498f565b91505092915050565b5f67ffffffffffffffff821115614a3e57614a3d61489b565b5b602082029050602081019050919050565b5f60ff82169050919050565b614a6481614a4f565b8114614a6e575f5ffd5b50565b5f81359050614a7f81614a5b565b92915050565b5f60608284031215614a9a57614a99614897565b5b614aa460606148f9565b90505f614ab384828501614a71565b5f830152506020614ac684828501614276565b6020830152506040614ada84828501614276565b60408301525092915050565b5f614af8614af384614a24565b6148f9565b90508083825260208201905060608402830185811115614b1b57614b1a613ca1565b5b835b81811015614b445780614b308882614a85565b845260208401935050606081019050614b1d565b5050509392505050565b5f82601f830112614b6257614b61613c99565b5b8135614b72848260208601614ae6565b91505092915050565b614b8481613e16565b8114614b8e575f5ffd5b50565b5f81359050614b9f81614b7b565b92915050565b5f60a08284031215614bba57614bb9614897565b5b614bc460a06148f9565b90505f614bd384828501614276565b5f83015250602082013567ffffffffffffffff811115614bf657614bf5614913565b5b614c02848285016149f7565b602083015250604082013567ffffffffffffffff811115614c2657614c25614913565b5b614c3284828501614b4e565b6040830152506060614c4684828501613f27565b6060830152506080614c5a84828501614b91565b60808301525092915050565b5f614c713683614ba5565b9050919050565b7f4e487b71000000000000000000000000000000000000000000000000000000005f52601160045260245ffd5b5f614caf82613f66565b9150614cba83613f66565b9250828203905081811115614cd257614cd1614c78565b5b92915050565b7f4e487b71000000000000000000000000000000000000000000000000000000005f52602260045260245ffd5b5f6002820490506001821680614d1c57607f821691505b602082108103614d2f57614d2e614cd8565b5b50919050565b614d3e8161454a565b8114614d48575f5ffd5b50565b5f81359050614d5981614d35565b92915050565b5f5ffd5b5f67ffffffffffffffff821115614d7d57614d7c61489b565b5b614d8682613e79565b9050602081019050919050565b828183375f83830152505050565b5f614db3614dae84614d63565b6148f9565b905082815260208101848484011115614dcf57614dce614d5f565b5b614dda848285614d93565b509392505050565b5f82601f830112614df657614df5613c99565b5b8135614e06848260208601614da1565b91505092915050565b5f60c08284031215614e2457614e23614897565b5b614e2e60c06148f9565b90505f614e3d84828501613f27565b5f830152506020614e5084828501614b91565b6020830152506040614e6484828501614d4b565b6040830152506060614e7884828501614276565b606083015250608082013567ffffffffffffffff811115614e9c57614e9b614913565b5b614ea884828501614de2565b60808301525060a0614ebc848285016142cb565b60a08301525092915050565b5f60e08284031215614edd57614edc614897565b5b614ee760a06148f9565b90505f614ef684828501614276565b5f83015250602082013567ffffffffffffffff811115614f1957614f18614913565b5b614f2584828501614e0f565b6020830152506040614f3984828501614a85565b60408301525060a0614f4d84828501613f27565b60608301525060c0614f6184828501614b91565b60808301525092915050565b5f614f783683614ec8565b9050919050565b5f8235600160c003833603038112614f9a57614f99614864565b5b80830191505092915050565b5f614fb13683614e0f565b9050919050565b5f82356001604003833603038112614fd357614fd2614864565b5b80830191505092915050565b5f5f83356001602003843603038112614ffb57614ffa614864565b5b80840192508235915067ffffffffffffffff82111561501d5761501c614868565b5b6020830192506020820236038313156150395761503861486c565b5b509250929050565b5f67ffffffffffffffff82111561505b5761505a61489b565b5b602082029050602081019050919050565b5f61507e61507984615041565b6148f9565b905080838252602082019050602084028301858111156150a1576150a0613ca1565b5b835b818110156150e857803567ffffffffffffffff8111156150c6576150c5613c99565b5b8086016150d38982614e0f565b855260208501945050506020810190506150a3565b5050509392505050565b5f6150fe36848461506c565b905092915050565b5f6040828403121561511b5761511a613c91565b5b5f61512884828501614942565b91505092915050565b5f8235600160400383360303811261514c5761514b614864565b5b80830191505092915050565b5f5f8335600160200384360303811261517457615173614864565b5b80840192508235915067ffffffffffffffff82111561519657615195614868565b5b6020830192506040820236038313156151b2576151b161486c565b5b509250929050565b5f81905092915050565b5f6151ce82613e51565b6151d881856151ba565b93506151e8818560208601613e6b565b80840191505092915050565b7f2e000000000000000000000000000000000000000000000000000000000000005f82015250565b5f6152286001836151ba565b9150615233826151f4565b600182019050919050565b5f61524982866151c4565b91506152548261521c565b915061526082856151c4565b915061526b8261521c565b915061527782846151c4565b9150819050949350505050565b5f6040820190506152975f830185613f6f565b6152a46020830184613f6f565b9392505050565b5f8235600160a0038336030381126152c6576152c5614864565b5b80830191505092915050565b5f5f833560016020038436030381126152ee576152ed614864565b5b80840192508235915067ffffffffffffffff8211156153105761530f614868565b5b60208301925060608202360383131561532c5761532b61486c565b5b509250929050565b5f6060828403121561534957615348613c91565b5b5f61535684828501614a85565b91505092915050565b5f6020828403121561537457615373613c91565b5b5f61538184828501614b91565b91505092915050565b5f61010082840312156153a05761539f614897565b5b6153aa60a06148f9565b90505f6153b984828501614276565b5f8301525060206153cc84828501614942565b60208301525060606153e084828501614a85565b60408301525060c06153f484828501613f27565b60608301525060e061540884828501614b91565b60808301525092915050565b5f610100828403121561542a57615429613c91565b5b5f6154378482850161538a565b91505092915050565b5f61544a82613f66565b91507fffffffffffffffffffffffffffffffffffffffffffffffffffffffffffffffff820361547c5761547b614c78565b5b600182019050919050565b5f60e08201905061549a5f83018a613d4e565b6154a76020830189614344565b6154b46040830188613d4e565b6154c16060830187613d4e565b6154ce6080830186613f6f565b6154db60a0830185613f6f565b6154e860c0830184613e29565b98975050505050505050565b5f819050919050565b61550e61550982613d45565b6154f4565b82525050565b5f8160f81b9050919050565b5f61552a82615514565b9050919050565b61554261553d82614a4f565b615520565b82525050565b5f61555382866154fd565b60208201915061556382856154fd565b6020820191506155738284615531565b600182019150819050949350505050565b5f8151905061559281614260565b92915050565b5f6155a282613f00565b9050919050565b6155b281615598565b81146155bc575f5ffd5b50565b5f815190506155cd816155a9565b92915050565b5f815190506155e181614d35565b92915050565b5f67ffffffffffffffff8211156156015761560061489b565b5b61560a82613e79565b9050602081019050919050565b5f615629615624846155e7565b6148f9565b90508281526020810184848401111561564557615644614d5f565b5b615650848285613e6b565b509392505050565b5f82601f83011261566c5761566b613c99565b5b815161567c848260208601615617565b91505092915050565b5f6080828403121561569a57615699614897565b5b6156a460806148f9565b90505f6156b384828501615584565b5f8301525060206156c6848285016155bf565b60208301525060406156da848285016155d3565b604083015250606082015167ffffffffffffffff8111156156fe576156fd614913565b5b61570a84828501615658565b60608301525092915050565b5f6020828403121561572b5761572a613c91565b5b5f82015167ffffffffffffffff81111561574857615747613c95565b5b61575484828501615685565b91505092915050565b5f610160820190506157715f83018e613d4e565b61577e602083018d614344565b61578b604083018c613d4e565b615798606083018b614344565b6157a5608083018a613e29565b6157b260a0830189614736565b6157bf60c0830188613d4e565b6157cc60e0830187613d4e565b6157da610100830186613f6f565b6157e8610120830185613f6f565b6157f6610140830184613e29565b9c9b505050505050505050505050565b5f819050815f5260205f209050919050565b5f6020601f8301049050919050565b5f82821b905092915050565b5f600883026158627fffffffffffffffffffffffffffffffffffffffffffffffffffffffffffffffff82615827565b61586c8683615827565b95508019841693508086168417925050509392505050565b5f61589e61589961589484613f66565b61475e565b613f66565b9050919050565b5f819050919050565b6158b783615884565b6158cb6158c3826158a5565b848454615833565b825550505050565b5f5f905090565b6158e26158d3565b6158ed8184846158ae565b505050565b5b81811015615910576159055f826158da565b6001810190506158f3565b5050565b601f8211156159555761592681615806565b61592f84615818565b8101602085101561593e578190505b61595261594a85615818565b8301826158f2565b50505b505050565b5f82821c905092915050565b5f6159755f198460080261595a565b1980831691505092915050565b5f61598d8383615966565b9150826002028217905092915050565b6159a682614564565b67ffffffffffffffff8111156159bf576159be61489b565b5b6159c98254614d05565b6159d4828285615914565b5f60209050601f831160018114615a05575f84156159f3578287015190505b6159fd8582615982565b865550615a64565b601f198416615a1386615806565b5f5b82811015615a3a57848901518255600182019150602085019450602081019050615a15565b86831015615a575784890151615a53601f891682615966565b8355505b6001600288020188555050505b505050505050565b7f4e487b71000000000000000000000000000000000000000000000000000000005f52601260045260245ffd5b7f4e487b71000000000000000000000000000000000000000000000000000000005f52602160045260245ffd5b5f60208284031215615adb57615ada613c91565b5b5f615ae8848285016155d3565b91505092915050565b5f81519050919050565b5f82825260208201905092915050565b5f819050602082019050919050565b5f61014083015f830151615b305f8601826140c9565b506020830151615b4360208601826140c9565b506040830151615b56604086018261452c565b506060830151615b69606086018261452c565b506080830151615b7c608086018261452c565b5060a0830151615b8f60a08601826140c9565b5060c0830151615ba260c086018261453b565b5060e0830151615bb560e086018261453b565b50610100830151615bca610100860182614555565b50610120830151848203610120860152615be4828261457e565b9150508091505092915050565b5f615bfc8383615b1a565b905092915050565b5f602082019050919050565b5f615c1a82615af1565b615c248185615afb565b935083602082028501615c3685615b0b565b805f5b85811015615c715784840389528151615c528582615bf1565b9450615c5d83615c04565b925060208a01995050600181019050615c39565b50829750879550505050505092915050565b5f6040820190508181035f830152615c9b8185615c10565b90508181036020830152615caf81846143ae565b90509392505050565b5f8160601b9050919050565b5f615cce82615cb8565b9050919050565b5f615cdf82615cc4565b9050919050565b615cf7615cf282613f00565b615cd5565b82525050565b5f8160c01b9050919050565b5f615d1382615cfd565b9050919050565b615d2b615d2682613e16565b615d09565b82525050565b5f615d3b82615520565b9050919050565b615d53615d4e8261454a565b615d31565b82525050565b5f81905092915050565b5f615d6d82614564565b615d778185615d59565b9350615d87818560208601613e6b565b80840191505092915050565b5f63ffffffff82169050919050565b5f8160e01b9050919050565b5f615db882615da2565b9050919050565b615dd0615dcb82615d93565b615dae565b82525050565b5f615de1828c6154fd565b602082019150615df1828b615ce6565b601482019150615e01828a615ce6565b601482019150615e118289615d1a565b600882019150615e218288615d1a565b600882019150615e318287615d42565b600182019150615e4182866154fd565b602082019150615e518285615d63565b9150615e5d8284615dbf565b6004820191508190509a9950505050505050505050565b5f60a082019050615e875f830188613d4e565b615e946020830187613d4e565b615ea16040830186613d4e565b615eae6060830185613f6f565b615ebb6080830184614344565b9695505050505050565b615ece81614a4f565b82525050565b5f608082019050615ee75f830187613d4e565b615ef46020830186615ec5565b615f016040830185613d4e565b615f0e6060830184613d4e565b9594505050505056fea26469706673582212208b3301deb3f39fcdd45aafaf23357851a1d4b3d8133b94b2f59509bcd547c2d964736f6c634300081c0033","linkReferences":{}},"methodIdentifiers":{"attest((bytes32,(address,uint64,bool,bytes32,bytes,uint256)))":"f17325e7","attestByDelegation((bytes32,(address,uint64,bool,bytes32,bytes,uint256),(uint8,bytes32,bytes32),address,uint64))":"3c042715","eip712Domain()":"84b0196e","getAttestTypeHash()":"12b11a17","getAttestation(bytes32)":"a3112a64","getDomainSeparator()":"ed24911d","getName()":"17d7de7c","getNonce(address)":"2d0335ab","getRevokeOffchain(address,bytes32)":"b469318d","getRevokeTypeHash()":"b83010d3","getSchemaRegistry()":"f10b5cc8","getTimestamp(bytes32)":"d45c4435","increaseNonce(uint256)":"79f7573a","isAttestationValid(bytes32)":"e30bb563","multiAttest((bytes32,(address,uint64,bool,bytes32,bytes,uint256)[])[])":"44adc90e","multiAttestByDelegation((bytes32,(address,uint64,bool,bytes32,bytes,uint256)[],(uint8,bytes32,bytes32)[],address,uint64)[])":"95411525","multiRevoke((bytes32,(bytes32,uint256)[])[])":"4cb7e9e5","multiRevokeByDelegation((bytes32,(bytes32,uint256)[],(uint8,bytes32,bytes32)[],address,uint64)[])":"0eabf660","multiRevokeOffchain(bytes32[])":"13893f61","multiTimestamp(bytes32[])":"e71ff365","revoke((bytes32,(bytes32,uint256)))":"46926267","revokeByDelegation((bytes32,(bytes32,uint256),(uint8,bytes32,bytes32),address,uint64))":"a6d4dbc7","revokeOffchain(bytes32)":"cf190f34","timestamp(bytes32)":"4d003070","version()":"54fd4d50"},"id":1}