{"abi":[{"type":"constructor","inputs":[{"name":"eas","type":"address","internalType":"contract IEAS"},{"name":"_astralSigner","type":"address","internalType":"address"},{"name":"_claimAmount","type":"uint256","internalType":"uint256"}],"stateMutability":"nonpayable"},{"type":"receive","stateMutability":"payable"},{"type":"function","name":"astralSigner","inputs":[],"outputs":[{"name":"","type":"address","internalType":"address"}],"stateMutability":"view"},{"type":"function","name":"attest","inputs":[{"name":"attestation","type":"tuple","internalType":"struct Attestation","components":[{"name":"uid","type":"bytes32","internalType":"bytes32"},{"name":"schema","type":"bytes32","internalType":"bytes32"},{"name":"time","type":"uint64","internalType":"uint64"},{"name":"expirationTime","type":"uint64","internalType":"uint64"},{"name":"revocationTime","type":"uint64","internalType":"uint64"},{"name":"refUID","type":"bytes32","internalType":"bytes32"},{"name":"recipient","type":"address","internalType":"address"},{"name":"attester","type":"address","internalType":"address"},{"name":"revocable","type":"bool","internalType":"bool"},{"name":"data","type":"bytes","internalType":"bytes"}]}],"outputs":[{"name":"","type":"bool","internalType":"bool"}],"stateMutability":"payable"},{"type":"function","name":"balanceOf","inputs":[{"name":"","type":"address","internalType":"address"}],"outputs":[{"name":"","type":"uint256","internalType":"uint256"}],"stateMutability":"view"},{"type":"function","name":"claimAmount","inputs":[],"outputs":[{"name":"","type":"uint256","internalType":"uint256"}],"stateMutability":"view"},{"type":"function","name":"hasClaimed","inputs":[{"name":"","type":"address","internalType":"address"}],"outputs":[{"name":"","type":"bool","internalType":"bool"}],"stateMutability":"view"},{"type":"function","name":"isPayable","inputs":[],"outputs":[{"name":"","type":"bool","internalType":"bool"}],"stateMutability":"pure"},{"type":"function","name":"mintingOpen","inputs":[],"outputs":[{"name":"","type":"bool","internalType":"bool"}],"stateMutability":"view"},{"type":"function","name":"multiAttest","inputs":[{"name":"attestations","type":"tuple[]","internalType":"struct Attestation[]","components":[{"name":"uid","type":"bytes32","internalType":"bytes32"},{"name":"schema","type":"bytes32","internalType":"bytes32"},{"name":"time","type":"uint64","internalType":"uint64"},{"name":"expirationTime","type":"uint64","internalType":"uint64"},{"name":"revocationTime","type":"uint64","internalType":"uint64"},{"name":"refUID","type":"bytes32","internalType":"bytes32"},{"name":"recipient","type":"address","internalType":"address"},{"name":"attester","type":"address","internalType":"address"},{"name":"revocable","type":"bool","internalType":"bool"},{"name":"data","type":"bytes","internalType":"bytes"}]},{"name":"values","type":"uint256[]","internalType":"uint256[]"}],"outputs":[{"name":"","type":"bool","internalType":"bool"}],"stateMutability":"payable"},{"type":"function","name":"multiRevoke","inputs":[{"name":"attestations","type":"tuple[]","internalType":"struct Attestation[]","components":[{"name":"uid","type":"bytes32","internalType":"bytes32"},{"name":"schema","type":"bytes32","internalType":"bytes32"},{"name":"time","type":"uint64","internalType":"uint64"},{"name":"expirationTime","type":"uint64","internalType":"uint64"},{"name":"revocationTime","type":"uint64","internalType":"uint64"},{"name":"refUID","type":"bytes32","internalType":"bytes32"},{"name":"recipient","type":"address","internalType":"address"},{"name":"attester","type":"address","internalType":"address"},{"name":"revocable","type":"bool","internalType":"bool"},{"name":"data","type":"bytes","internalType":"bytes"}]},{"name":"values","type":"uint256[]","internalType":"uint256[]"}],"outputs":[{"name":"","type":"bool","internalType":"bool"}],"stateMutability":"payable"},{"type":"function","name":"revoke","inputs":[{"name":"attestation","type":"tuple","internalType":"struct Attestation","components":[{"name":"uid","type":"bytes32","internalType":"bytes32"},{"name":"schema","type":"bytes32","internalType":"bytes32"},{"name":"time","type":"uint64","internalType":"uint64"},{"name":"expirationTime","type":"uint64","internalType":"uint64"},{"name":"revocationTime","type":"uint64","internalType":"uint64"},{"name":"refUID","type":"bytes32","internalType":"bytes32"},{"name":"recipient","type":"address","internalType":"address"},{"name":"attester","type":"address","internalType":"address"},{"name":"revocable","type":"bool","internalType":"bool"},{"name":"data","type":"bytes","internalType":"bytes"}]}],"outputs":[{"name":"","type":"bool","internalType":"bool"}],"stateMutability":"payable"},{"type":"function","name":"setMintingOpen","inputs":[{"name":"open","type":"bool","internalType":"bool"}],"outputs":[],"stateMutability":"nonpayable"},{"type":"function","name":"totalSupply","inputs":[],"outputs":[{"name":"","type":"uint256","internalType":"uint256"}],"stateMutability":"view"},{"type":"function","name":"totalSupply_","inputs":[],"outputs":[{"name":"","type":"uint256","internalType":"uint256"}],"stateMutability":"view"},{"type":"function","name":"version","inputs":[],"outputs":[{"name":"","type":"string","internalType":"string"}],"stateMutability":"view"},{"type":"event","name":"Claimed","inputs":[{"name":"recipient","type":"address","indexed":true,"internalType":"address"},{"name":"amount","type":"uint256","indexed":false,"internalType":"uint256"},{"name":"attestationUID","type":"bytes32","indexed":true,"internalType":"bytes32"}],"anonymous":false},{"type":"error","name":"AccessDenied","inputs":[]},{"type":"error","name":"AlreadyClaimed","inputs":[]},{"type":"error","name":"InsufficientValue","inputs":[]},{"type":"error","name":"InvalidEAS","inputs":[]},{"type":"error","name":"InvalidLength","inputs":[]},{"type":"error","name":"MintingClosed","inputs":[]},{"type":"error","name":"NotAstralAttester","inputs":[]},{"type":"error","name":"NotPayable","inputs":[]},{"type":"error","name":"PolicyFailed","inputs":[]},{"type":"error","name":"ZeroAddress","inputs":[]}],"bytecode":{"object":"0x610120604052348015610010575f5ffd5b506040516119003803806119008339818101604052810190610032919061027c565b82600160045f82608081815250508160a081815250508060c081815250505050505f73ffffffffffffffffffffffffffffffffffffffff168173ffffffffffffffffffffffffffffffffffffffff16036100b8576040517f83780ffe00000000000000000000000000000000000000000000000000000000815260040160405180910390fd5b8073ffffffffffffffffffffffffffffffffffffffff1660e08173ffffffffffffffffffffffffffffffffffffffff1681525050505f73ffffffffffffffffffffffffffffffffffffffff168273ffffffffffffffffffffffffffffffffffffffff1603610152576040517fd92e233d00000000000000000000000000000000000000000000000000000000815260040160405180910390fd5b8173ffffffffffffffffffffffffffffffffffffffff166101008173ffffffffffffffffffffffffffffffffffffffff168152505080600381905550600160045f6101000a81548160ff0219169083151502179055505050506102cc565b5f5ffd5b5f73ffffffffffffffffffffffffffffffffffffffff82169050919050565b5f6101dd826101b4565b9050919050565b5f6101ee826101d3565b9050919050565b6101fe816101e4565b8114610208575f5ffd5b50565b5f81519050610219816101f5565b92915050565b610228816101d3565b8114610232575f5ffd5b50565b5f815190506102438161021f565b92915050565b5f819050919050565b61025b81610249565b8114610265575f5ffd5b50565b5f8151905061027681610252565b92915050565b5f5f5f60608486031215610293576102926101b0565b5b5f6102a08682870161020b565b93505060206102b186828701610235565b92505060406102c286828701610268565b9150509250925092565b60805160a05160c05160e051610100516115f06103105f395f81816105c601526108ef01525f61081701525f61041e01525f6103f501525f6103cc01526115f05ff3fe6080604052600436106100e0575f3560e01c80638f4bb4971161007e578063b033caf111610058578063b033caf1146102fd578063ce46e04614610325578063e49617e11461034f578063e60c35051461037f57610125565b80638f4bb49714610279578063914daedb146102a357806391db0b7e146102cd57610125565b806370a08231116100ba57806370a08231146101a757806373b2e80e146101e3578063830953ab1461021f57806388e5b2d91461024957610125565b806318160ddd14610129578063324536eb1461015357806354fd4d501461017d57610125565b36610125576100ed6103af565b610123576040517f1574f9f300000000000000000000000000000000000000000000000000000000815260040160405180910390fd5b005b5f5ffd5b348015610134575f5ffd5b5061013d6103b6565b60405161014a9190610d32565b60405180910390f35b34801561015e575f5ffd5b506101676103bf565b6040516101749190610d32565b60405180910390f35b348015610188575f5ffd5b506101916103c5565b60405161019e9190610dbb565b60405180910390f35b3480156101b2575f5ffd5b506101cd60048036038101906101c89190610e46565b610468565b6040516101da9190610d32565b60405180910390f35b3480156101ee575f5ffd5b5061020960048036038101906102049190610e46565b61047c565b6040516102169190610e8b565b60405180910390f35b34801561022a575f5ffd5b50610233610499565b6040516102409190610d32565b60405180910390f35b610263600480360381019061025e9190610f5a565b61049f565b6040516102709190610e8b565b60405180910390f35b348015610284575f5ffd5b5061028d6105b2565b60405161029a9190610e8b565b60405180910390f35b3480156102ae575f5ffd5b506102b76105c4565b6040516102c49190610fe7565b60405180910390f35b6102e760048036038101906102e29190610f5a565b6105e8565b6040516102f49190610e8b565b60405180910390f35b348015610308575f5ffd5b50610323600480360381019061031e919061102a565b6106fb565b005b348015610330575f5ffd5b506103396103af565b6040516103469190610e8b565b60405180910390f35b61036960048036038101906103649190611078565b610717565b6040516103769190610e8b565b60405180910390f35b61039960048036038101906103949190611078565b610731565b6040516103a69190610e8b565b60405180910390f35b5f5f905090565b5f600254905090565b60025481565b60606103f07f000000000000000000000000000000000000000000000000000000000000000061074b565b6104197f000000000000000000000000000000000000000000000000000000000000000061074b565b6104427f000000000000000000000000000000000000000000000000000000000000000061074b565b60405160200161045493929190611143565b604051602081830303815290604052905090565b5f602052805f5260405f205f915090505481565b6001602052805f5260405f205f915054906101000a900460ff1681565b60035481565b5f6104a8610815565b5f8585905090508383905081146104eb576040517f947d5a8400000000000000000000000000000000000000000000000000000000815260040160405180910390fd5b5f3490505f5f90505b828110156105a2575f8686838181106105105761050f611189565b5b90506020020135905082811115610553576040517f1101129400000000000000000000000000000000000000000000000000000000815260040160405180910390fd5b61058189898481811061056957610568611189565b5b905060200281019061057b91906111c2565b8261089c565b610591575f9450505050506105aa565b8083039250508060010190506104f4565b506001925050505b949350505050565b60045f9054906101000a900460ff1681565b7f000000000000000000000000000000000000000000000000000000000000000081565b5f6105f1610815565b5f858590509050838390508114610634576040517f947d5a8400000000000000000000000000000000000000000000000000000000815260040160405180910390fd5b5f3490505f5f90505b828110156106eb575f86868381811061065957610658611189565b5b9050602002013590508281111561069c576040517f1101129400000000000000000000000000000000000000000000000000000000815260040160405180910390fd5b6106ca8989848181106106b2576106b1611189565b5b90506020028101906106c491906111c2565b826108a7565b6106da575f9450505050506106f3565b80830392505080600101905061063d565b506001925050505b949350505050565b8060045f6101000a81548160ff02191690831515021790555050565b5f610720610815565b61072a823461089c565b9050919050565b5f61073a610815565b61074482346108a7565b9050919050565b60605f600161075984610bc9565b0190505f8167ffffffffffffffff811115610777576107766111ea565b5b6040519080825280601f01601f1916602001820160405280156107a95781602001600182028036833780820191505090505b5090505f82602083010190505b60011561080a578080600190039150507f3031323334353637383961626364656600000000000000000000000000000000600a86061a8153600a85816107ff576107fe611217565b5b0494505f85036107b6575b819350505050919050565b7f000000000000000000000000000000000000000000000000000000000000000073ffffffffffffffffffffffffffffffffffffffff163373ffffffffffffffffffffffffffffffffffffffff161461089a576040517f4ca8886700000000000000000000000000000000000000000000000000000000815260040160405180910390fd5b565b5f6001905092915050565b5f60045f9054906101000a900460ff166108ed576040517fa7e4d9bd00000000000000000000000000000000000000000000000000000000815260040160405180910390fd5b7f000000000000000000000000000000000000000000000000000000000000000073ffffffffffffffffffffffffffffffffffffffff168360e00160208101906109379190610e46565b73ffffffffffffffffffffffffffffffffffffffff1614610984576040517f7a17ace600000000000000000000000000000000000000000000000000000000815260040160405180910390fd5b60015f8460c001602081019061099a9190610e46565b73ffffffffffffffffffffffffffffffffffffffff1673ffffffffffffffffffffffffffffffffffffffff1681526020019081526020015f205f9054906101000a900460ff1615610a17576040517f646cf55800000000000000000000000000000000000000000000000000000000815260040160405180910390fd5b5f83806101200190610a299190611244565b810190610a3691906114be565b505050905080610a72576040517fd03fb92e00000000000000000000000000000000000000000000000000000000815260040160405180910390fd5b6001805f8660c0016020810190610a899190610e46565b73ffffffffffffffffffffffffffffffffffffffff1673ffffffffffffffffffffffffffffffffffffffff1681526020019081526020015f205f6101000a81548160ff0219169083151502179055506003545f5f8660c0016020810190610af09190610e46565b73ffffffffffffffffffffffffffffffffffffffff1673ffffffffffffffffffffffffffffffffffffffff1681526020019081526020015f205f828254610b379190611587565b9250508190555060035460025f828254610b519190611587565b92505081905550835f01358460c0016020810190610b6f9190610e46565b73ffffffffffffffffffffffffffffffffffffffff167fd95107f4584744c6c893a04c43058aadd1ce8aac8ca5d64140eaf277de6c1d57600354604051610bb69190610d32565b60405180910390a3600191505092915050565b5f5f5f90507a184f03e93ff9f4daa797ed6e38ed64bf6a1f0100000000000000008310610c25577a184f03e93ff9f4daa797ed6e38ed64bf6a1f0100000000000000008381610c1b57610c1a611217565b5b0492506040810190505b6d04ee2d6d415b85acef81000000008310610c62576d04ee2d6d415b85acef81000000008381610c5857610c57611217565b5b0492506020810190505b662386f26fc100008310610c9157662386f26fc100008381610c8757610c86611217565b5b0492506010810190505b6305f5e1008310610cba576305f5e1008381610cb057610caf611217565b5b0492506008810190505b6127108310610cdf576127108381610cd557610cd4611217565b5b0492506004810190505b60648310610d025760648381610cf857610cf7611217565b5b0492506002810190505b600a8310610d11576001810190505b80915050919050565b5f819050919050565b610d2c81610d1a565b82525050565b5f602082019050610d455f830184610d23565b92915050565b5f81519050919050565b5f82825260208201905092915050565b8281835e5f83830152505050565b5f601f19601f8301169050919050565b5f610d8d82610d4b565b610d978185610d55565b9350610da7818560208601610d65565b610db081610d73565b840191505092915050565b5f6020820190508181035f830152610dd38184610d83565b905092915050565b5f604051905090565b5f5ffd5b5f5ffd5b5f73ffffffffffffffffffffffffffffffffffffffff82169050919050565b5f610e1582610dec565b9050919050565b610e2581610e0b565b8114610e2f575f5ffd5b50565b5f81359050610e4081610e1c565b92915050565b5f60208284031215610e5b57610e5a610de4565b5b5f610e6884828501610e32565b91505092915050565b5f8115159050919050565b610e8581610e71565b82525050565b5f602082019050610e9e5f830184610e7c565b92915050565b5f5ffd5b5f5ffd5b5f5ffd5b5f5f83601f840112610ec557610ec4610ea4565b5b8235905067ffffffffffffffff811115610ee257610ee1610ea8565b5b602083019150836020820283011115610efe57610efd610eac565b5b9250929050565b5f5f83601f840112610f1a57610f19610ea4565b5b8235905067ffffffffffffffff811115610f3757610f36610ea8565b5b602083019150836020820283011115610f5357610f52610eac565b5b9250929050565b5f5f5f5f60408587031215610f7257610f71610de4565b5b5f85013567ffffffffffffffff811115610f8f57610f8e610de8565b5b610f9b87828801610eb0565b9450945050602085013567ffffffffffffffff811115610fbe57610fbd610de8565b5b610fca87828801610f05565b925092505092959194509250565b610fe181610e0b565b82525050565b5f602082019050610ffa5f830184610fd8565b92915050565b61100981610e71565b8114611013575f5ffd5b50565b5f8135905061102481611000565b92915050565b5f6020828403121561103f5761103e610de4565b5b5f61104c84828501611016565b91505092915050565b5f5ffd5b5f610140828403121561106f5761106e611055565b5b81905092915050565b5f6020828403121561108d5761108c610de4565b5b5f82013567ffffffffffffffff8111156110aa576110a9610de8565b5b6110b684828501611059565b91505092915050565b5f81905092915050565b5f6110d382610d4b565b6110dd81856110bf565b93506110ed818560208601610d65565b80840191505092915050565b7f2e000000000000000000000000000000000000000000000000000000000000005f82015250565b5f61112d6001836110bf565b9150611138826110f9565b600182019050919050565b5f61114e82866110c9565b915061115982611121565b915061116582856110c9565b915061117082611121565b915061117c82846110c9565b9150819050949350505050565b7f4e487b71000000000000000000000000000000000000000000000000000000005f52603260045260245ffd5b5f5ffd5b5f5ffd5b5f5ffd5b5f82356001610140038336030381126111de576111dd6111b6565b5b80830191505092915050565b7f4e487b71000000000000000000000000000000000000000000000000000000005f52604160045260245ffd5b7f4e487b71000000000000000000000000000000000000000000000000000000005f52601260045260245ffd5b5f5f833560016020038436030381126112605761125f6111b6565b5b80840192508235915067ffffffffffffffff821115611282576112816111ba565b5b60208301925060018202360383131561129e5761129d6111be565b5b509250929050565b6112af82610d73565b810181811067ffffffffffffffff821117156112ce576112cd6111ea565b5b80604052505050565b5f6112e0610ddb565b90506112ec82826112a6565b919050565b5f67ffffffffffffffff82111561130b5761130a6111ea565b5b602082029050602081019050919050565b5f819050919050565b61132e8161131c565b8114611338575f5ffd5b50565b5f8135905061134981611325565b92915050565b5f61136161135c846112f1565b6112d7565b9050808382526020820190506020840283018581111561138457611383610eac565b5b835b818110156113ad5780611399888261133b565b845260208401935050602081019050611386565b5050509392505050565b5f82601f8301126113cb576113ca610ea4565b5b81356113db84826020860161134f565b91505092915050565b6113ed81610d1a565b81146113f7575f5ffd5b50565b5f81359050611408816113e4565b92915050565b5f5ffd5b5f67ffffffffffffffff82111561142c5761142b6111ea565b5b61143582610d73565b9050602081019050919050565b828183375f83830152505050565b5f61146261145d84611412565b6112d7565b90508281526020810184848401111561147e5761147d61140e565b5b611489848285611442565b509392505050565b5f82601f8301126114a5576114a4610ea4565b5b81356114b5848260208601611450565b91505092915050565b5f5f5f5f608085870312156114d6576114d5610de4565b5b5f6114e387828801611016565b945050602085013567ffffffffffffffff81111561150457611503610de8565b5b611510878288016113b7565b9350506040611521878288016113fa565b925050606085013567ffffffffffffffff81111561154257611541610de8565b5b61154e87828801611491565b91505092959194509250565b7f4e487b71000000000000000000000000000000000000000000000000000000005f52601160045260245ffd5b5f61159182610d1a565b915061159c83610d1a565b92508282019050808211156115b4576115b361155a565b5b9291505056fea2646970667358221220635b33a04645e163ee04682b29a493f66d9b9435b10b3128bafada223949af6064736f6c634300081c0033","linkReferences":{}},"methodIdentifiers":{"astralSigner()":"914daedb","attest((bytes32,bytes32,uint64,uint64,uint64,bytes32,address,address,bool,bytes))":"e60c3505","balanceOf(address)":"70a08231","claimAmount()":"830953ab","hasClaimed(address)":"73b2e80e","isPayable()":"ce46e046","mintingOpen()":"8f4bb497","multiAttest((bytes32,bytes32,uint64,uint64,uint64,bytes32,address,address,bool,bytes)[],uint256[])":"91db0b7e","multiRevoke((bytes32,bytes32,uint64,uint64,uint64,bytes32,address,address,bool,bytes)[],uint256[])":"88e5b2d9","revoke((bytes32,bytes32,uint64,uint64,uint64,bytes32,address,address,bool,bytes))":"e49617e1","setMintingOpen(bool)":"b033caf1","totalSupply()":"18160ddd","totalSupply_()":"324536eb","version()":"54fd4d50"},"id":50}