{"abi":[{"type":"constructor","inputs":[],"stateMutability":"nonpayable"},{"type":"function","name":"getSchema","inputs":[{"name":"uid","type":"bytes32","internalType":"bytes32"}],"outputs":[{"name":"","type":"tuple","internalType":"struct SchemaRecord","components":[{"name":"uid","type":"bytes32","internalType":"bytes32"},{"name":"resolver","type":"address","internalType":"contract ISchemaResolver"},{"name":"revocable","type":"bool","internalType":"bool"},{"name":"schema","type":"string","internalType":"string"}]}],"stateMutability":"view"},{"type":"function","name":"register","inputs":[{"name":"schema","type":"string","internalType":"string"},{"name":"resolver","type":"address","internalType":"contract ISchemaResolver"},{"name":"revocable","type":"bool","internalType":"bool"}],"outputs":[{"name":"","type":"bytes32","internalType":"bytes32"}],"stateMutability":"nonpayable"},{"type":"function","name":"version","inputs":[],"outputs":[{"name":"","type":"string","internalType":"string"}],"stateMutability":"view"},{"type":"event","name":"Registered","inputs":[{"name":"uid","type":"bytes32","indexed":true,"internalType":"bytes32"},{"name":"registerer","type":"address","indexed":true,"internalType":"address"},{"name":"schema","type":"tuple","indexed":false,"internalType":"struct SchemaRecord","components":[{"name":"uid","type":"bytes32","internalType":"bytes32"},{"name":"resolver","type":"address","internalType":"contract ISchemaResolver"},{"name":"revocable","type":"bool","internalType":"bool"},{"name":"schema","type":"string","internalType":"string"}]}],"anonymous":false},{"type":"error","name":"AlreadyExists","inputs":[]}],"bytecode":{"object":"0x60e0604052348015600e575f5ffd5b50600160045f82608081815250508160a081815250508060c0818152505050505060805160a05160c051610fbf6100575f395f61011a01525f60f101525f60c80152610fbf5ff3fe608060405234801561000f575f5ffd5b506004361061003f575f3560e01c806354fd4d501461004357806360d7a27814610061578063a2ea7c6e14610091575b5f5ffd5b61004b6100c1565b6040516100589190610776565b60405180910390f35b61007b6004803603810190610076919061089f565b610164565b6040516100889190610928565b60405180910390f35b6100ab60048036038101906100a6919061096b565b61033c565b6040516100b89190610ab7565b60405180910390f35b60606100ec7f000000000000000000000000000000000000000000000000000000000000000061046f565b6101157f000000000000000000000000000000000000000000000000000000000000000061046f565b61013e7f000000000000000000000000000000000000000000000000000000000000000061046f565b60405160200161015093929190610b5b565b604051602081830303815290604052905090565b5f5f60405180608001604052805f5f1b81526020018573ffffffffffffffffffffffffffffffffffffffff168152602001841515815260200187878080601f0160208091040260200160405190810160405280939291908181526020018383808284375f81840152601f19601f8201169050808301925050505050505081525090505f6101f082610539565b90505f5f1b5f5f8381526020019081526020015f205f01541461023f576040517f23369fa600000000000000000000000000000000000000000000000000000000815260040160405180910390fd5b80825f018181525050815f5f8381526020019081526020015f205f820151815f01556020820151816001015f6101000a81548173ffffffffffffffffffffffffffffffffffffffff021916908373ffffffffffffffffffffffffffffffffffffffff16021790555060408201518160010160146101000a81548160ff02191690831515021790555060608201518160020190816102dc9190610dcb565b509050503373ffffffffffffffffffffffffffffffffffffffff16817fd0b86852e21f9e5fa4bc3b0cff9757ffe243d50c4b43968a42202153d651ea5e846040516103279190610ab7565b60405180910390a38092505050949350505050565b6103446106c9565b5f5f8381526020019081526020015f206040518060800160405290815f8201548152602001600182015f9054906101000a900473ffffffffffffffffffffffffffffffffffffffff1673ffffffffffffffffffffffffffffffffffffffff1673ffffffffffffffffffffffffffffffffffffffff1681526020016001820160149054906101000a900460ff161515151581526020016002820180546103e890610bfb565b80601f016020809104026020016040519081016040528092919081815260200182805461041490610bfb565b801561045f5780601f106104365761010080835404028352916020019161045f565b820191905f5260205f20905b81548152906001019060200180831161044257829003601f168201915b5050505050815250509050919050565b60605f600161047d84610578565b0190505f8167ffffffffffffffff81111561049b5761049a610ba1565b5b6040519080825280601f01601f1916602001820160405280156104cd5781602001600182028036833780820191505090505b5090505f82602083010190505b60011561052e578080600190039150507f3031323334353637383961626364656600000000000000000000000000000000600a86061a8153600a858161052357610522610e9a565b5b0494505f85036104da575b819350505050919050565b5f81606001518260200151836040015160405160200161055b93929190610f51565b604051602081830303815290604052805190602001209050919050565b5f5f5f90507a184f03e93ff9f4daa797ed6e38ed64bf6a1f01000000000000000083106105d4577a184f03e93ff9f4daa797ed6e38ed64bf6a1f01000000000000000083816105ca576105c9610e9a565b5b0492506040810190505b6d04ee2d6d415b85acef81000000008310610611576d04ee2d6d415b85acef8100000000838161060757610606610e9a565b5b0492506020810190505b662386f26fc10000831061064057662386f26fc10000838161063657610635610e9a565b5b0492506010810190505b6305f5e1008310610669576305f5e100838161065f5761065e610e9a565b5b0492506008810190505b612710831061068e57612710838161068457610683610e9a565b5b0492506004810190505b606483106106b157606483816106a7576106a6610e9a565b5b0492506002810190505b600a83106106c0576001810190505b80915050919050565b60405180608001604052805f81526020015f73ffffffffffffffffffffffffffffffffffffffff1681526020015f15158152602001606081525090565b5f81519050919050565b5f82825260208201905092915050565b8281835e5f83830152505050565b5f601f19601f8301169050919050565b5f61074882610706565b6107528185610710565b9350610762818560208601610720565b61076b8161072e565b840191505092915050565b5f6020820190508181035f83015261078e818461073e565b905092915050565b5f5ffd5b5f5ffd5b5f5ffd5b5f5ffd5b5f5ffd5b5f5f83601f8401126107bf576107be61079e565b5b8235905067ffffffffffffffff8111156107dc576107db6107a2565b5b6020830191508360018202830111156107f8576107f76107a6565b5b9250929050565b5f73ffffffffffffffffffffffffffffffffffffffff82169050919050565b5f610828826107ff565b9050919050565b5f6108398261081e565b9050919050565b6108498161082f565b8114610853575f5ffd5b50565b5f8135905061086481610840565b92915050565b5f8115159050919050565b61087e8161086a565b8114610888575f5ffd5b50565b5f8135905061089981610875565b92915050565b5f5f5f5f606085870312156108b7576108b6610796565b5b5f85013567ffffffffffffffff8111156108d4576108d361079a565b5b6108e0878288016107aa565b945094505060206108f387828801610856565b92505060406109048782880161088b565b91505092959194509250565b5f819050919050565b61092281610910565b82525050565b5f60208201905061093b5f830184610919565b92915050565b61094a81610910565b8114610954575f5ffd5b50565b5f8135905061096581610941565b92915050565b5f602082840312156109805761097f610796565b5b5f61098d84828501610957565b91505092915050565b61099f81610910565b82525050565b5f819050919050565b5f6109c86109c36109be846107ff565b6109a5565b6107ff565b9050919050565b5f6109d9826109ae565b9050919050565b5f6109ea826109cf565b9050919050565b6109fa816109e0565b82525050565b610a098161086a565b82525050565b5f82825260208201905092915050565b5f610a2982610706565b610a338185610a0f565b9350610a43818560208601610720565b610a4c8161072e565b840191505092915050565b5f608083015f830151610a6c5f860182610996565b506020830151610a7f60208601826109f1565b506040830151610a926040860182610a00565b5060608301518482036060860152610aaa8282610a1f565b9150508091505092915050565b5f6020820190508181035f830152610acf8184610a57565b905092915050565b5f81905092915050565b5f610aeb82610706565b610af58185610ad7565b9350610b05818560208601610720565b80840191505092915050565b7f2e000000000000000000000000000000000000000000000000000000000000005f82015250565b5f610b45600183610ad7565b9150610b5082610b11565b600182019050919050565b5f610b668286610ae1565b9150610b7182610b39565b9150610b7d8285610ae1565b9150610b8882610b39565b9150610b948284610ae1565b9150819050949350505050565b7f4e487b71000000000000000000000000000000000000000000000000000000005f52604160045260245ffd5b7f4e487b71000000000000000000000000000000000000000000000000000000005f52602260045260245ffd5b5f6002820490506001821680610c1257607f821691505b602082108103610c2557610c24610bce565b5b50919050565b5f819050815f5260205f209050919050565b5f6020601f8301049050919050565b5f82821b905092915050565b5f60088302610c877fffffffffffffffffffffffffffffffffffffffffffffffffffffffffffffffff82610c4c565b610c918683610c4c565b95508019841693508086168417925050509392505050565b5f819050919050565b5f610ccc610cc7610cc284610ca9565b6109a5565b610ca9565b9050919050565b5f819050919050565b610ce583610cb2565b610cf9610cf182610cd3565b848454610c58565b825550505050565b5f5f905090565b610d10610d01565b610d1b818484610cdc565b505050565b5b81811015610d3e57610d335f82610d08565b600181019050610d21565b5050565b601f821115610d8357610d5481610c2b565b610d5d84610c3d565b81016020851015610d6c578190505b610d80610d7885610c3d565b830182610d20565b50505b505050565b5f82821c905092915050565b5f610da35f1984600802610d88565b1980831691505092915050565b5f610dbb8383610d94565b9150826002028217905092915050565b610dd482610706565b67ffffffffffffffff811115610ded57610dec610ba1565b5b610df78254610bfb565b610e02828285610d42565b5f60209050601f831160018114610e33575f8415610e21578287015190505b610e2b8582610db0565b865550610e92565b601f198416610e4186610c2b565b5f5b82811015610e6857848901518255600182019150602085019450602081019050610e43565b86831015610e855784890151610e81601f891682610d94565b8355505b6001600288020188555050505b505050505050565b7f4e487b71000000000000000000000000000000000000000000000000000000005f52601260045260245ffd5b5f8160601b9050919050565b5f610edd82610ec7565b9050919050565b5f610eee82610ed3565b9050919050565b610f06610f01826109e0565b610ee4565b82525050565b5f8160f81b9050919050565b5f610f2282610f0c565b9050919050565b5f610f3382610f18565b9050919050565b610f4b610f468261086a565b610f29565b82525050565b5f610f5c8286610ae1565b9150610f688285610ef5565b601482019150610f788284610f3a565b60018201915081905094935050505056fea2646970667358221220fa4d24a29026f61fae049646c1914e0dce49b5245a6c043097a3c3d9f796b0a564736f6c634300081c0033","linkReferences":{}},"methodIdentifiers":{"getSchema(bytes32)":"a2ea7c6e","register(string,address,bool)":"60d7a278","version()":"54fd4d50"},"id":5}