{"abi":[{"type":"constructor","inputs":[{"name":"eas","type":"address","internalType":"contract IEAS"},{"name":"_astralSigner","type":"address","internalType":"address"}],"stateMutability":"nonpayable"},{"type":"receive","stateMutability":"payable"},{"type":"function","name":"astralSigner","inputs":[],"outputs":[{"name":"","type":"address","internalType":"address"}],"stateMutability":"view"},{"type":"function","name":"attest","inputs":[{"name":"attestation","type":"tuple","internalType":"struct Attestation","components":[{"name":"uid","type":"bytes32","internalType":"bytes32"},{"name":"schema","type":"bytes32","internalType":"bytes32"},{"name":"time","type":"uint64","internalType":"uint64"},{"name":"expirationTime","type":"uint64","internalType":"uint64"},{"name":"revocationTime","type":"uint64","internalType":"uint64"},{"name":"refUID","type":"bytes32","internalType":"bytes32"},{"name":"recipient","type":"address","internalType":"address"},{"name":"attester","type":"address","internalType":"address"},{"name":"revocable","type":"bool","internalType":"bool"},{"name":"data","type":"bytes","internalType":"bytes"}]}],"outputs":[{"name":"","type":"bool","internalType":"bool"}],"stateMutability":"payable"},{"type":"function","name":"balanceOf","inputs":[{"name":"owner","type":"address","internalType":"address"}],"outputs":[{"name":"","type":"uint256","internalType":"uint256"}],"stateMutability":"view"},{"type":"function","name":"hasMinted","inputs":[{"name":"","type":"address","internalType":"address"}],"outputs":[{"name":"","type":"bool","internalType":"bool"}],"stateMutability":"view"},{"type":"function","name":"isPayable","inputs":[],"outputs":[{"name":"","type":"bool","internalType":"bool"}],"stateMutability":"pure"},{"type":"function","name":"multiAttest","inputs":[{"name":"attestations","type":"tuple[]","internalType":"struct Attestation[]","components":[{"name":"uid","type":"bytes32","internalType":"bytes32"},{"name":"schema","type":"bytes32","internalType":"bytes32"},{"name":"time","type":"uint64","internalType":"uint64"},{"name":"expirationTime","type":"uint64","internalType":"uint64"},{"name":"revocationTime","type":"uint64","internalType":"uint64"},{"name":"refUID","type":"bytes32","internalType":"bytes32"},{"name":"recipient","type":"address","internalType":"address"},{"name":"attester","type":"address","internalType":"address"},{"name":"revocable","type":"bool","internalType":"bool"},{"name":"data","type":"bytes","internalType":"bytes"}]},{"name":"values","type":"uint256[]","internalType":"uint256[]"}],"outputs":[{"name":"","type":"bool","internalType":"bool"}],"stateMutability":"payable"},{"type":"function","name":"multiRevoke","inputs":[{"name":"attestations","type":"tuple[]","internalType":"struct Attestation[]","components":[{"name":"uid","type":"bytes32","internalType":"bytes32"},{"name":"schema","type":"bytes32","internalType":"bytes32"},{"name":"time","type":"uint64","internalType":"uint64"},{"name":"expirationTime","type":"uint64","internalType":"uint64"},{"name":"revocationTime","type":"uint64","internalType":"uint64"},{"name":"refUID","type":"bytes32","internalType":"bytes32"},{"name":"recipient","type":"address","internalType":"address"},{"name":"attester","type":"address","internalType":"address"},{"name":"revocable","type":"bool","internalType":"bool"},{"name":"data","type":"bytes","internalType":"bytes"}]},{"name":"values","type":"uint256[]","internalType":"uint256[]"}],"outputs":[{"name":"","type":"bool","internalType":"bool"}],"stateMutability":"payable"},{"type":"function","name":"ownerOf","inputs":[{"name":"","type":"uint256","internalType":"uint256"}],"outputs":[{"name":"","type":"address","internalType":"address"}],"stateMutability":"view"},{"type":"function","name":"revoke","inputs":[{"name":"attestation","type":"tuple","internalType":"struct Attestation","components":[{"name":"uid","type":"bytes32","internalType":"bytes32"},{"name":"schema","type":"bytes32","internalType":"bytes32"},{"name":"time","type":"uint64","internalType":"uint64"},{"name":"expirationTime","type":"uint64","internalType":"uint64"},{"name":"revocationTime","type":"uint64","internalType":"uint64"},{"name":"refUID","type":"bytes32","internalType":"bytes32"},{"name":"recipient","type":"address","internalType":"address"},{"name":"attester","type":"address","internalType":"address"},{"name":"revocable","type":"bool","internalType":"bool"},{"name":"data","type":"bytes","internalType":"bytes"}]}],"outputs":[{"name":"","type":"bool","internalType":"bool"}],"stateMutability":"payable"},{"type":"function","name":"tokensOf","inputs":[{"name":"","type":"address","internalType":"address"},{"name":"","type":"uint256","internalType":"uint256"}],"outputs":[{"name":"","type":"uint256","internalType":"uint256"}],"stateMutability":"view"},{"type":"function","name":"totalSupply","inputs":[],"outputs":[{"name":"","type":"uint256","internalType":"uint256"}],"stateMutability":"view"},{"type":"function","name":"version","inputs":[],"outputs":[{"name":"","type":"string","internalType":"string"}],"stateMutability":"view"},{"type":"event","name":"Minted","inputs":[{"name":"recipient","type":"address","indexed":true,"internalType":"address"},{"name":"tokenId","type":"uint256","indexed":true,"internalType":"uint256"},{"name":"attestationUID","type":"bytes32","indexed":true,"internalType":"bytes32"}],"anonymous":false},{"type":"error","name":"AccessDenied","inputs":[]},{"type":"error","name":"AlreadyMinted","inputs":[]},{"type":"error","name":"InsufficientValue","inputs":[]},{"type":"error","name":"InvalidEAS","inputs":[]},{"type":"error","name":"InvalidLength","inputs":[]},{"type":"error","name":"LocationCheckFailed","inputs":[]},{"type":"error","name":"NotAstralAttester","inputs":[]},{"type":"error","name":"NotPayable","inputs":[]},{"type":"error","name":"ZeroAddress","inputs":[]}],"bytecode":{"object":"0x610120604052348015610010575f5ffd5b506040516118f73803806118f783398181016040528101906100329190610227565b81600160045f82608081815250508160a081815250508060c081815250505050505f73ffffffffffffffffffffffffffffffffffffffff168173ffffffffffffffffffffffffffffffffffffffff16036100b8576040517f83780ffe00000000000000000000000000000000000000000000000000000000815260040160405180910390fd5b8073ffffffffffffffffffffffffffffffffffffffff1660e08173ffffffffffffffffffffffffffffffffffffffff1681525050505f73ffffffffffffffffffffffffffffffffffffffff168173ffffffffffffffffffffffffffffffffffffffff1603610152576040517fd92e233d00000000000000000000000000000000000000000000000000000000815260040160405180910390fd5b8073ffffffffffffffffffffffffffffffffffffffff166101008173ffffffffffffffffffffffffffffffffffffffff16815250505050610265565b5f5ffd5b5f73ffffffffffffffffffffffffffffffffffffffff82169050919050565b5f6101bb82610192565b9050919050565b5f6101cc826101b1565b9050919050565b6101dc816101c2565b81146101e6575f5ffd5b50565b5f815190506101f7816101d3565b92915050565b610206816101b1565b8114610210575f5ffd5b50565b5f81519050610221816101fd565b92915050565b5f5f6040838503121561023d5761023c61018e565b5b5f61024a858286016101e9565b925050602061025b85828601610213565b9150509250929050565b60805160a05160c05160e0516101005161164e6102a95f395f81816105d3015261089b01525f61080801525f6103fb01525f6103d201525f6103a9015261164e5ff3fe6080604052600436106100aa575f3560e01c806388e5b2d91161006357806388e5b2d914610237578063914daedb1461026757806391db0b7e14610291578063ce46e046146102c1578063e49617e1146102eb578063e60c35051461031b576100ef565b806318160ddd146100f357806338a3dbae1461011d57806338e21cce1461015957806354fd4d50146101955780636352211e146101bf57806370a08231146101fb576100ef565b366100ef576100b761034b565b6100ed576040517f1574f9f300000000000000000000000000000000000000000000000000000000815260040160405180910390fd5b005b5f5ffd5b3480156100fe575f5ffd5b50610107610352565b6040516101149190610d3e565b60405180910390f35b348015610128575f5ffd5b50610143600480360381019061013e9190610dec565b61035a565b6040516101509190610d3e565b60405180910390f35b348015610164575f5ffd5b5061017f600480360381019061017a9190610e2a565b610385565b60405161018c9190610e6f565b60405180910390f35b3480156101a0575f5ffd5b506101a96103a2565b6040516101b69190610ef8565b60405180910390f35b3480156101ca575f5ffd5b506101e560048036038101906101e09190610f18565b610445565b6040516101f29190610f52565b60405180910390f35b348015610206575f5ffd5b50610221600480360381019061021c9190610e2a565b610475565b60405161022e9190610d3e565b60405180910390f35b610251600480360381019061024c9190611021565b6104be565b60405161025e9190610e6f565b60405180910390f35b348015610272575f5ffd5b5061027b6105d1565b6040516102889190610f52565b60405180910390f35b6102ab60048036038101906102a69190611021565b6105f5565b6040516102b89190610e6f565b60405180910390f35b3480156102cc575f5ffd5b506102d561034b565b6040516102e29190610e6f565b60405180910390f35b610305600480360381019061030091906110c2565b610708565b6040516103129190610e6f565b60405180910390f35b610335600480360381019061033091906110c2565b610722565b6040516103429190610e6f565b60405180910390f35b5f5f905090565b5f5f54905090565b6002602052815f5260405f208181548110610373575f80fd5b905f5260205f20015f91509150505481565b6003602052805f5260405f205f915054906101000a900460ff1681565b60606103cd7f000000000000000000000000000000000000000000000000000000000000000061073c565b6103f67f000000000000000000000000000000000000000000000000000000000000000061073c565b61041f7f000000000000000000000000000000000000000000000000000000000000000061073c565b6040516020016104319392919061118d565b604051602081830303815290604052905090565b6001602052805f5260405f205f915054906101000a900473ffffffffffffffffffffffffffffffffffffffff1681565b5f60025f8373ffffffffffffffffffffffffffffffffffffffff1673ffffffffffffffffffffffffffffffffffffffff1681526020019081526020015f20805490509050919050565b5f6104c7610806565b5f85859050905083839050811461050a576040517f947d5a8400000000000000000000000000000000000000000000000000000000815260040160405180910390fd5b5f3490505f5f90505b828110156105c1575f86868381811061052f5761052e6111d3565b5b90506020020135905082811115610572576040517f1101129400000000000000000000000000000000000000000000000000000000815260040160405180910390fd5b6105a0898984818110610588576105876111d3565b5b905060200281019061059a919061120c565b8261088d565b6105b0575f9450505050506105c9565b808303925050806001019050610513565b506001925050505b949350505050565b7f000000000000000000000000000000000000000000000000000000000000000081565b5f6105fe610806565b5f858590509050838390508114610641576040517f947d5a8400000000000000000000000000000000000000000000000000000000815260040160405180910390fd5b5f3490505f5f90505b828110156106f8575f868683818110610666576106656111d3565b5b905060200201359050828111156106a9576040517f1101129400000000000000000000000000000000000000000000000000000000815260040160405180910390fd5b6106d78989848181106106bf576106be6111d3565b5b90506020028101906106d1919061120c565b82610898565b6106e7575f945050505050610700565b80830392505080600101905061064a565b506001925050505b949350505050565b5f610711610806565b61071b823461088d565b9050919050565b5f61072b610806565b6107358234610898565b9050919050565b60605f600161074a84610bd5565b0190505f8167ffffffffffffffff81111561076857610767611234565b5b6040519080825280601f01601f19166020018201604052801561079a5781602001600182028036833780820191505090505b5090505f82602083010190505b6001156107fb578080600190039150507f3031323334353637383961626364656600000000000000000000000000000000600a86061a8153600a85816107f0576107ef611261565b5b0494505f85036107a7575b819350505050919050565b7f000000000000000000000000000000000000000000000000000000000000000073ffffffffffffffffffffffffffffffffffffffff163373ffffffffffffffffffffffffffffffffffffffff161461088b576040517f4ca8886700000000000000000000000000000000000000000000000000000000815260040160405180910390fd5b565b5f6001905092915050565b5f7f000000000000000000000000000000000000000000000000000000000000000073ffffffffffffffffffffffffffffffffffffffff168360e00160208101906108e39190610e2a565b73ffffffffffffffffffffffffffffffffffffffff1614610930576040517f7a17ace600000000000000000000000000000000000000000000000000000000815260040160405180910390fd5b60035f8460c00160208101906109469190610e2a565b73ffffffffffffffffffffffffffffffffffffffff1673ffffffffffffffffffffffffffffffffffffffff1681526020019081526020015f205f9054906101000a900460ff16156109c3576040517fddefae2800000000000000000000000000000000000000000000000000000000815260040160405180910390fd5b5f838061012001906109d5919061128e565b8101906109e29190611508565b505050905080610a1e576040517fdf0571c400000000000000000000000000000000000000000000000000000000815260040160405180910390fd5b600160035f8660c0016020810190610a369190610e2a565b73ffffffffffffffffffffffffffffffffffffffff1673ffffffffffffffffffffffffffffffffffffffff1681526020019081526020015f205f6101000a81548160ff0219169083151502179055505f5f5f8154610a93906115d1565b91905081905590508460c0016020810190610aae9190610e2a565b60015f8381526020019081526020015f205f6101000a81548173ffffffffffffffffffffffffffffffffffffffff021916908373ffffffffffffffffffffffffffffffffffffffff16021790555060025f8660c0016020810190610b129190610e2a565b73ffffffffffffffffffffffffffffffffffffffff1673ffffffffffffffffffffffffffffffffffffffff1681526020019081526020015f2081908060018154018082558091505060019003905f5260205f20015f9091909190915055845f0135818660c0016020810190610b879190610e2a565b73ffffffffffffffffffffffffffffffffffffffff167fc263b302aec62d29105026245f19e16f8e0137066ccd4a8bd941f716bd4096bb60405160405180910390a460019250505092915050565b5f5f5f90507a184f03e93ff9f4daa797ed6e38ed64bf6a1f0100000000000000008310610c31577a184f03e93ff9f4daa797ed6e38ed64bf6a1f0100000000000000008381610c2757610c26611261565b5b0492506040810190505b6d04ee2d6d415b85acef81000000008310610c6e576d04ee2d6d415b85acef81000000008381610c6457610c63611261565b5b0492506020810190505b662386f26fc100008310610c9d57662386f26fc100008381610c9357610c92611261565b5b0492506010810190505b6305f5e1008310610cc6576305f5e1008381610cbc57610cbb611261565b5b0492506008810190505b6127108310610ceb576127108381610ce157610ce0611261565b5b0492506004810190505b60648310610d0e5760648381610d0457610d03611261565b5b0492506002810190505b600a8310610d1d576001810190505b80915050919050565b5f819050919050565b610d3881610d26565b82525050565b5f602082019050610d515f830184610d2f565b92915050565b5f604051905090565b5f5ffd5b5f5ffd5b5f73ffffffffffffffffffffffffffffffffffffffff82169050919050565b5f610d9182610d68565b9050919050565b610da181610d87565b8114610dab575f5ffd5b50565b5f81359050610dbc81610d98565b92915050565b610dcb81610d26565b8114610dd5575f5ffd5b50565b5f81359050610de681610dc2565b92915050565b5f5f60408385031215610e0257610e01610d60565b5b5f610e0f85828601610dae565b9250506020610e2085828601610dd8565b9150509250929050565b5f60208284031215610e3f57610e3e610d60565b5b5f610e4c84828501610dae565b91505092915050565b5f8115159050919050565b610e6981610e55565b82525050565b5f602082019050610e825f830184610e60565b92915050565b5f81519050919050565b5f82825260208201905092915050565b8281835e5f83830152505050565b5f601f19601f8301169050919050565b5f610eca82610e88565b610ed48185610e92565b9350610ee4818560208601610ea2565b610eed81610eb0565b840191505092915050565b5f6020820190508181035f830152610f108184610ec0565b905092915050565b5f60208284031215610f2d57610f2c610d60565b5b5f610f3a84828501610dd8565b91505092915050565b610f4c81610d87565b82525050565b5f602082019050610f655f830184610f43565b92915050565b5f5ffd5b5f5ffd5b5f5ffd5b5f5f83601f840112610f8c57610f8b610f6b565b5b8235905067ffffffffffffffff811115610fa957610fa8610f6f565b5b602083019150836020820283011115610fc557610fc4610f73565b5b9250929050565b5f5f83601f840112610fe157610fe0610f6b565b5b8235905067ffffffffffffffff811115610ffe57610ffd610f6f565b5b60208301915083602082028301111561101a57611019610f73565b5b9250929050565b5f5f5f5f6040858703121561103957611038610d60565b5b5f85013567ffffffffffffffff81111561105657611055610d64565b5b61106287828801610f77565b9450945050602085013567ffffffffffffffff81111561108557611084610d64565b5b61109187828801610fcc565b925092505092959194509250565b5f5ffd5b5f61014082840312156110b9576110b861109f565b5b81905092915050565b5f602082840312156110d7576110d6610d60565b5b5f82013567ffffffffffffffff8111156110f4576110f3610d64565b5b611100848285016110a3565b91505092915050565b5f81905092915050565b5f61111d82610e88565b6111278185611109565b9350611137818560208601610ea2565b80840191505092915050565b7f2e000000000000000000000000000000000000000000000000000000000000005f82015250565b5f611177600183611109565b915061118282611143565b600182019050919050565b5f6111988286611113565b91506111a38261116b565b91506111af8285611113565b91506111ba8261116b565b91506111c68284611113565b9150819050949350505050565b7f4e487b71000000000000000000000000000000000000000000000000000000005f52603260045260245ffd5b5f5ffd5b5f5ffd5b5f5ffd5b5f823560016101400383360303811261122857611227611200565b5b80830191505092915050565b7f4e487b71000000000000000000000000000000000000000000000000000000005f52604160045260245ffd5b7f4e487b71000000000000000000000000000000000000000000000000000000005f52601260045260245ffd5b5f5f833560016020038436030381126112aa576112a9611200565b5b80840192508235915067ffffffffffffffff8211156112cc576112cb611204565b5b6020830192506001820236038313156112e8576112e7611208565b5b509250929050565b6112f981610e55565b8114611303575f5ffd5b50565b5f81359050611314816112f0565b92915050565b61132382610eb0565b810181811067ffffffffffffffff8211171561134257611341611234565b5b80604052505050565b5f611354610d57565b9050611360828261131a565b919050565b5f67ffffffffffffffff82111561137f5761137e611234565b5b602082029050602081019050919050565b5f819050919050565b6113a281611390565b81146113ac575f5ffd5b50565b5f813590506113bd81611399565b92915050565b5f6113d56113d084611365565b61134b565b905080838252602082019050602084028301858111156113f8576113f7610f73565b5b835b81811015611421578061140d88826113af565b8452602084019350506020810190506113fa565b5050509392505050565b5f82601f83011261143f5761143e610f6b565b5b813561144f8482602086016113c3565b91505092915050565b5f5ffd5b5f67ffffffffffffffff82111561147657611475611234565b5b61147f82610eb0565b9050602081019050919050565b828183375f83830152505050565b5f6114ac6114a78461145c565b61134b565b9050828152602081018484840111156114c8576114c7611458565b5b6114d384828561148c565b509392505050565b5f82601f8301126114ef576114ee610f6b565b5b81356114ff84826020860161149a565b91505092915050565b5f5f5f5f608085870312156115205761151f610d60565b5b5f61152d87828801611306565b945050602085013567ffffffffffffffff81111561154e5761154d610d64565b5b61155a8782880161142b565b935050604061156b87828801610dd8565b925050606085013567ffffffffffffffff81111561158c5761158b610d64565b5b611598878288016114db565b91505092959194509250565b7f4e487b71000000000000000000000000000000000000000000000000000000005f52601160045260245ffd5b5f6115db82610d26565b91507fffffffffffffffffffffffffffffffffffffffffffffffffffffffffffffffff820361160d5761160c6115a4565b5b60018201905091905056fea2646970667358221220ece5795e55171d48208d21c65f5b485cc78b2fbea52f060bf2c2fc0c765f199764736f6c634300081c0033","linkReferences":{}},"methodIdentifiers":{"astralSigner()":"914daedb","attest((bytes32,bytes32,uint64,uint64,uint64,bytes32,address,address,bool,bytes))":"e60c3505","balanceOf(address)":"70a08231","hasMinted(address)":"38e21cce","isPayable()":"ce46e046","multiAttest((bytes32,bytes32,uint64,uint64,uint64,bytes32,address,address,bool,bytes)[],uint256[])":"91db0b7e","multiRevoke((bytes32,bytes32,uint64,uint64,uint64,bytes32,address,address,bool,bytes)[],uint256[])":"88e5b2d9","ownerOf(uint256)":"6352211e","revoke((bytes32,bytes32,uint64,uint64,uint64,bytes32,address,address,bool,bytes))":"e49617e1","tokensOf(address,uint256)":"38a3dbae","totalSupply()":"18160ddd","version()":"54fd4d50"},"id":51}